{
  "address": "0x9036250A8Ec7070f82b969C7C9FB4353ef4D8338",
  "abi": [
    {
      "inputs": [],
      "stateMutability": "nonpayable",
      "type": "constructor"
    },
    {
      "inputs": [],
      "name": "Not__AllowedAmount",
      "type": "error"
    },
    {
      "inputs": [],
      "name": "Not__EnoughAmount",
      "type": "error"
    },
    {
      "anonymous": false,
      "inputs": [
        {
          "indexed": true,
          "internalType": "address",
          "name": "account",
          "type": "address"
        },
        {
          "indexed": true,
          "internalType": "address",
          "name": "operator",
          "type": "address"
        },
        {
          "indexed": false,
          "internalType": "bool",
          "name": "approved",
          "type": "bool"
        }
      ],
      "name": "ApprovalForAll",
      "type": "event"
    },
    {
      "anonymous": false,
      "inputs": [
        {
          "indexed": true,
          "internalType": "address",
          "name": "previousOwner",
          "type": "address"
        },
        {
          "indexed": true,
          "internalType": "address",
          "name": "newOwner",
          "type": "address"
        }
      ],
      "name": "OwnershipTransferred",
      "type": "event"
    },
    {
      "anonymous": false,
      "inputs": [
        {
          "indexed": true,
          "internalType": "address",
          "name": "operator",
          "type": "address"
        },
        {
          "indexed": true,
          "internalType": "address",
          "name": "from",
          "type": "address"
        },
        {
          "indexed": true,
          "internalType": "address",
          "name": "to",
          "type": "address"
        },
        {
          "indexed": false,
          "internalType": "uint256[]",
          "name": "ids",
          "type": "uint256[]"
        },
        {
          "indexed": false,
          "internalType": "uint256[]",
          "name": "values",
          "type": "uint256[]"
        }
      ],
      "name": "TransferBatch",
      "type": "event"
    },
    {
      "anonymous": false,
      "inputs": [
        {
          "indexed": true,
          "internalType": "address",
          "name": "operator",
          "type": "address"
        },
        {
          "indexed": true,
          "internalType": "address",
          "name": "from",
          "type": "address"
        },
        {
          "indexed": true,
          "internalType": "address",
          "name": "to",
          "type": "address"
        },
        {
          "indexed": false,
          "internalType": "uint256",
          "name": "id",
          "type": "uint256"
        },
        {
          "indexed": false,
          "internalType": "uint256",
          "name": "value",
          "type": "uint256"
        }
      ],
      "name": "TransferSingle",
      "type": "event"
    },
    {
      "anonymous": false,
      "inputs": [
        {
          "indexed": false,
          "internalType": "string",
          "name": "value",
          "type": "string"
        },
        {
          "indexed": true,
          "internalType": "uint256",
          "name": "id",
          "type": "uint256"
        }
      ],
      "name": "URI",
      "type": "event"
    },
    {
      "inputs": [
        {
          "internalType": "uint256",
          "name": "",
          "type": "uint256"
        }
      ],
      "name": "avaliableToken",
      "outputs": [
        {
          "internalType": "uint256",
          "name": "tokenId",
          "type": "uint256"
        }
      ],
      "stateMutability": "view",
      "type": "function"
    },
    {
      "inputs": [],
      "name": "avaliableTokens",
      "outputs": [
        {
          "internalType": "uint256",
          "name": "",
          "type": "uint256"
        }
      ],
      "stateMutability": "view",
      "type": "function"
    },
    {
      "inputs": [
        {
          "internalType": "address",
          "name": "account",
          "type": "address"
        },
        {
          "internalType": "uint256",
          "name": "id",
          "type": "uint256"
        }
      ],
      "name": "balanceOf",
      "outputs": [
        {
          "internalType": "uint256",
          "name": "",
          "type": "uint256"
        }
      ],
      "stateMutability": "view",
      "type": "function"
    },
    {
      "inputs": [
        {
          "internalType": "address[]",
          "name": "accounts",
          "type": "address[]"
        },
        {
          "internalType": "uint256[]",
          "name": "ids",
          "type": "uint256[]"
        }
      ],
      "name": "balanceOfBatch",
      "outputs": [
        {
          "internalType": "uint256[]",
          "name": "",
          "type": "uint256[]"
        }
      ],
      "stateMutability": "view",
      "type": "function"
    },
    {
      "inputs": [
        {
          "internalType": "address",
          "name": "account",
          "type": "address"
        },
        {
          "internalType": "uint256",
          "name": "id",
          "type": "uint256"
        },
        {
          "internalType": "uint256",
          "name": "value",
          "type": "uint256"
        }
      ],
      "name": "burn",
      "outputs": [],
      "stateMutability": "nonpayable",
      "type": "function"
    },
    {
      "inputs": [
        {
          "internalType": "address",
          "name": "account",
          "type": "address"
        },
        {
          "internalType": "uint256[]",
          "name": "ids",
          "type": "uint256[]"
        },
        {
          "internalType": "uint256[]",
          "name": "values",
          "type": "uint256[]"
        }
      ],
      "name": "burnBatch",
      "outputs": [],
      "stateMutability": "nonpayable",
      "type": "function"
    },
    {
      "inputs": [
        {
          "internalType": "uint256",
          "name": "id",
          "type": "uint256"
        }
      ],
      "name": "exists",
      "outputs": [
        {
          "internalType": "bool",
          "name": "",
          "type": "bool"
        }
      ],
      "stateMutability": "view",
      "type": "function"
    },
    {
      "inputs": [
        {
          "internalType": "address",
          "name": "account",
          "type": "address"
        },
        {
          "internalType": "address",
          "name": "operator",
          "type": "address"
        }
      ],
      "name": "isApprovedForAll",
      "outputs": [
        {
          "internalType": "bool",
          "name": "",
          "type": "bool"
        }
      ],
      "stateMutability": "view",
      "type": "function"
    },
    {
      "inputs": [],
      "name": "maxSupply",
      "outputs": [
        {
          "internalType": "uint256",
          "name": "",
          "type": "uint256"
        }
      ],
      "stateMutability": "view",
      "type": "function"
    },
    {
      "inputs": [],
      "name": "mint",
      "outputs": [],
      "stateMutability": "payable",
      "type": "function"
    },
    {
      "inputs": [
        {
          "internalType": "address",
          "name": "",
          "type": "address"
        }
      ],
      "name": "mintCount",
      "outputs": [
        {
          "internalType": "uint256",
          "name": "",
          "type": "uint256"
        }
      ],
      "stateMutability": "view",
      "type": "function"
    },
    {
      "inputs": [],
      "name": "mintLimit",
      "outputs": [
        {
          "internalType": "uint256",
          "name": "",
          "type": "uint256"
        }
      ],
      "stateMutability": "view",
      "type": "function"
    },
    {
      "inputs": [],
      "name": "name",
      "outputs": [
        {
          "internalType": "string",
          "name": "",
          "type": "string"
        }
      ],
      "stateMutability": "view",
      "type": "function"
    },
    {
      "inputs": [],
      "name": "owner",
      "outputs": [
        {
          "internalType": "address",
          "name": "",
          "type": "address"
        }
      ],
      "stateMutability": "view",
      "type": "function"
    },
    {
      "inputs": [
        {
          "internalType": "uint256",
          "name": "_number",
          "type": "uint256"
        }
      ],
      "name": "randomIndex",
      "outputs": [
        {
          "internalType": "uint256",
          "name": "",
          "type": "uint256"
        }
      ],
      "stateMutability": "view",
      "type": "function"
    },
    {
      "inputs": [],
      "name": "renounceOwnership",
      "outputs": [],
      "stateMutability": "nonpayable",
      "type": "function"
    },
    {
      "inputs": [
        {
          "internalType": "uint256",
          "name": "_tokenId",
          "type": "uint256"
        },
        {
          "internalType": "uint256",
          "name": "_salePrice",
          "type": "uint256"
        }
      ],
      "name": "royaltyInfo",
      "outputs": [
        {
          "internalType": "address",
          "name": "",
          "type": "address"
        },
        {
          "internalType": "uint256",
          "name": "",
          "type": "uint256"
        }
      ],
      "stateMutability": "view",
      "type": "function"
    },
    {
      "inputs": [
        {
          "internalType": "address",
          "name": "from",
          "type": "address"
        },
        {
          "internalType": "address",
          "name": "to",
          "type": "address"
        },
        {
          "internalType": "uint256[]",
          "name": "ids",
          "type": "uint256[]"
        },
        {
          "internalType": "uint256[]",
          "name": "amounts",
          "type": "uint256[]"
        },
        {
          "internalType": "bytes",
          "name": "data",
          "type": "bytes"
        }
      ],
      "name": "safeBatchTransferFrom",
      "outputs": [],
      "stateMutability": "nonpayable",
      "type": "function"
    },
    {
      "inputs": [
        {
          "internalType": "address",
          "name": "from",
          "type": "address"
        },
        {
          "internalType": "address",
          "name": "to",
          "type": "address"
        },
        {
          "internalType": "uint256",
          "name": "id",
          "type": "uint256"
        },
        {
          "internalType": "uint256",
          "name": "amount",
          "type": "uint256"
        },
        {
          "internalType": "bytes",
          "name": "data",
          "type": "bytes"
        }
      ],
      "name": "safeTransferFrom",
      "outputs": [],
      "stateMutability": "nonpayable",
      "type": "function"
    },
    {
      "inputs": [
        {
          "internalType": "address",
          "name": "operator",
          "type": "address"
        },
        {
          "internalType": "bool",
          "name": "approved",
          "type": "bool"
        }
      ],
      "name": "setApprovalForAll",
      "outputs": [],
      "stateMutability": "nonpayable",
      "type": "function"
    },
    {
      "inputs": [
        {
          "internalType": "bytes4",
          "name": "interfaceId",
          "type": "bytes4"
        }
      ],
      "name": "supportsInterface",
      "outputs": [
        {
          "internalType": "bool",
          "name": "",
          "type": "bool"
        }
      ],
      "stateMutability": "view",
      "type": "function"
    },
    {
      "inputs": [],
      "name": "symbol",
      "outputs": [
        {
          "internalType": "string",
          "name": "",
          "type": "string"
        }
      ],
      "stateMutability": "view",
      "type": "function"
    },
    {
      "inputs": [
        {
          "internalType": "uint256",
          "name": "",
          "type": "uint256"
        }
      ],
      "name": "tokenIds",
      "outputs": [
        {
          "internalType": "uint256",
          "name": "",
          "type": "uint256"
        }
      ],
      "stateMutability": "view",
      "type": "function"
    },
    {
      "inputs": [],
      "name": "totalSupply",
      "outputs": [
        {
          "internalType": "uint256",
          "name": "",
          "type": "uint256"
        }
      ],
      "stateMutability": "view",
      "type": "function"
    },
    {
      "inputs": [
        {
          "internalType": "uint256",
          "name": "id",
          "type": "uint256"
        }
      ],
      "name": "totalSupply",
      "outputs": [
        {
          "internalType": "uint256",
          "name": "",
          "type": "uint256"
        }
      ],
      "stateMutability": "view",
      "type": "function"
    },
    {
      "inputs": [
        {
          "internalType": "address",
          "name": "newOwner",
          "type": "address"
        }
      ],
      "name": "transferOwnership",
      "outputs": [],
      "stateMutability": "nonpayable",
      "type": "function"
    },
    {
      "inputs": [
        {
          "internalType": "uint256",
          "name": "",
          "type": "uint256"
        }
      ],
      "name": "uri",
      "outputs": [
        {
          "internalType": "string",
          "name": "",
          "type": "string"
        }
      ],
      "stateMutability": "view",
      "type": "function"
    },
    {
      "inputs": [],
      "name": "withdraw",
      "outputs": [],
      "stateMutability": "nonpayable",
      "type": "function"
    }
  ],
  "transactionHash": "0xb228b13c36fa41a0d7decb16fcd61efffc60ee77d20ff5d39e7f7f38012c94c5",
  "args": [],
  "numDeployments": 1,
  "solcInputHash": "7d56e331efcbdd31dd77d4ae0b21b849",
  "bytecode": "0x60806040526019600b556040518060400160405280600881526020017f4e79616e20436174000000000000000000000000000000000000000000000000815250600c9080519060200190620000569291906200023e565b506040518060400160405280600481526020017f4e59414e00000000000000000000000000000000000000000000000000000000815250600d9080519060200190620000a49291906200023e565b50662386f26fc10000600e556002600f55348015620000c257600080fd5b506040518060800160405280605a8152602001620048a6605a9139620000ee816200015460201b60201c565b506200010f620001036200017060201b60201c565b6200017860201b60201c565b60005b60198110156200014d5780600a6000838152602001908152602001600020600001819055508080620001449062000327565b91505062000112565b50620003d8565b80600290805190602001906200016c9291906200023e565b5050565b600033905090565b6000600660009054906101000a900473ffffffffffffffffffffffffffffffffffffffff16905081600660006101000a81548173ffffffffffffffffffffffffffffffffffffffff021916908373ffffffffffffffffffffffffffffffffffffffff1602179055508173ffffffffffffffffffffffffffffffffffffffff168173ffffffffffffffffffffffffffffffffffffffff167f8be0079c531659141344cd1fd0a4f28419497f9722a3daafe3b4186f6b6457e060405160405180910390a35050565b8280546200024c90620003a3565b90600052602060002090601f016020900481019282620002705760008555620002bc565b82601f106200028b57805160ff1916838001178555620002bc565b82800160010185558215620002bc579182015b82811115620002bb5782518255916020019190600101906200029e565b5b509050620002cb9190620002cf565b5090565b5b80821115620002ea576000816000905550600101620002d0565b5090565b7f4e487b7100000000000000000000000000000000000000000000000000000000600052601160045260246000fd5b6000819050919050565b600062000334826200031d565b91507fffffffffffffffffffffffffffffffffffffffffffffffffffffffffffffffff8203620003695762000368620002ee565b5b600182019050919050565b7f4e487b7100000000000000000000000000000000000000000000000000000000600052602260045260246000fd5b60006002820490506001821680620003bc57607f821691505b602082108103620003d257620003d162000374565b5b50919050565b6144be80620003e86000396000f3fe6080604052600436106101b65760003560e01c806385e0aca2116100ec578063d58778d61161008a578063ed9ec88811610064578063ed9ec8881461063b578063f242432a14610678578063f2fde38b146106a1578063f5298aca146106ca576101b6565b8063d58778d614610596578063d5abeb01146105d3578063e985e9c5146105fe576101b6565b8063996517cf116100c6578063996517cf146104c8578063a22cb465146104f3578063ad84fa331461051c578063bd85b03914610559576101b6565b806385e0aca2146104355780638da5cb5b1461047257806395d89b411461049d576101b6565b80632eb2c2d6116101595780634e1273f4116101335780634e1273f41461037b5780634f558e79146103b85780636b20c454146103f5578063715018a61461041e576101b6565b80632eb2c2d6146103105780633ccfd60b146103395780634d67d1ab14610350576101b6565b80630e89341c116101955780630e89341c146102605780631249c58b1461029d57806318160ddd146102a75780632a55205a146102d2576101b6565b8062fdd58e146101bb57806301ffc9a7146101f857806306fdde0314610235575b600080fd5b3480156101c757600080fd5b506101e260048036038101906101dd9190612ca6565b6106f3565b6040516101ef9190612cf5565b60405180910390f35b34801561020457600080fd5b5061021f600480360381019061021a9190612d68565b6107bb565b60405161022c9190612db0565b60405180910390f35b34801561024157600080fd5b5061024a6107cd565b6040516102579190612e64565b60405180910390f35b34801561026c57600080fd5b5061028760048036038101906102829190612e86565b61085f565b6040516102949190612e64565b60405180910390f35b6102a56108f3565b005b3480156102b357600080fd5b506102bc610c05565b6040516102c99190612cf5565b60405180910390f35b3480156102de57600080fd5b506102f960048036038101906102f49190612eb3565b610c0b565b604051610307929190612f02565b60405180910390f35b34801561031c57600080fd5b5061033760048036038101906103329190613128565b610df5565b005b34801561034557600080fd5b5061034e610e96565b005b34801561035c57600080fd5b50610365610f1e565b6040516103729190612cf5565b60405180910390f35b34801561038757600080fd5b506103a2600480360381019061039d91906132ba565b610f24565b6040516103af91906133f0565b60405180910390f35b3480156103c457600080fd5b506103df60048036038101906103da9190612e86565b61103d565b6040516103ec9190612db0565b60405180910390f35b34801561040157600080fd5b5061041c60048036038101906104179190613412565b611051565b005b34801561042a57600080fd5b506104336110ee565b005b34801561044157600080fd5b5061045c60048036038101906104579190612e86565b611102565b6040516104699190612cf5565b60405180910390f35b34801561047e57600080fd5b50610487611117565b604051610494919061349d565b60405180910390f35b3480156104a957600080fd5b506104b2611141565b6040516104bf9190612e64565b60405180910390f35b3480156104d457600080fd5b506104dd6111d3565b6040516104ea9190612cf5565b60405180910390f35b3480156104ff57600080fd5b5061051a600480360381019061051591906134e4565b6111d9565b005b34801561052857600080fd5b50610543600480360381019061053e9190612e86565b6111ef565b6040516105509190612cf5565b60405180910390f35b34801561056557600080fd5b50610580600480360381019061057b9190612e86565b61120d565b60405161058d9190612cf5565b60405180910390f35b3480156105a257600080fd5b506105bd60048036038101906105b89190612e86565b61122a565b6040516105ca9190612cf5565b60405180910390f35b3480156105df57600080fd5b506105e8611242565b6040516105f59190612cf5565b60405180910390f35b34801561060a57600080fd5b5061062560048036038101906106209190613524565b611248565b6040516106329190612db0565b60405180910390f35b34801561064757600080fd5b50610662600480360381019061065d9190613564565b6112dc565b60405161066f9190612cf5565b60405180910390f35b34801561068457600080fd5b5061069f600480360381019061069a9190613591565b6112f4565b005b3480156106ad57600080fd5b506106c860048036038101906106c39190613564565b611395565b005b3480156106d657600080fd5b506106f160048036038101906106ec9190613628565b611418565b005b60008073ffffffffffffffffffffffffffffffffffffffff168373ffffffffffffffffffffffffffffffffffffffff1603610763576040517f08c379a000000000000000000000000000000000000000000000000000000000815260040161075a906136ed565b60405180910390fd5b60008083815260200190815260200160002060008473ffffffffffffffffffffffffffffffffffffffff1673ffffffffffffffffffffffffffffffffffffffff16815260200190815260200160002054905092915050565b60006107c6826114b5565b9050919050565b6060600c80546107dc9061373c565b80601f01602080910402602001604051908101604052809291908181526020018280546108089061373c565b80156108555780601f1061082a57610100808354040283529160200191610855565b820191906000526020600020905b81548152906001019060200180831161083857829003601f168201915b5050505050905090565b60606002805461086e9061373c565b80601f016020809104026020016040519081016040528092919081815260200182805461089a9061373c565b80156108e75780601f106108bc576101008083540402835291602001916108e7565b820191906000526020600020905b8154815290600101906020018083116108ca57829003601f168201915b50505050509050919050565b6104e26001600754610905919061379c565b1115610946576040517f08c379a000000000000000000000000000000000000000000000000000000000815260040161093d9061383e565b60405180910390fd5b600e54341015610982576040517fda6aaa0400000000000000000000000000000000000000000000000000000000815260040160405180910390fd5b600f546001600960003373ffffffffffffffffffffffffffffffffffffffff1673ffffffffffffffffffffffffffffffffffffffff168152602001908152602001600020546109d1919061379c565b1115610a09576040517f369c91b000000000000000000000000000000000000000000000000000000000815260040160405180910390fd5b6000600b5403610a45576040517fda6aaa0400000000000000000000000000000000000000000000000000000000815260040160405180910390fd5b6000610a52600b54611102565b9050610a8633600a60008481526020019081526020016000206000015460016040518060200160405280600081525061152f565b60086000600a60008481526020019081526020016000206000015481526020019081526020016000206000815480929190610ac09061385e565b9190505550603260086000600a60008581526020019081526020016000206000015481526020019081526020016000205410610b9157600181610b03919061379c565b6001600b54610b12919061379c565b03610b36576001600b6000828254610b2a91906138a6565b92505081905550610b90565b600a60006001600b54610b4991906138a6565b815260200190815260200160002060000154600a6000838152602001908152602001600020600001819055506001600b6000828254610b8891906138a6565b925050819055505b5b600160076000828254610ba4919061379c565b925050819055506001600960003373ffffffffffffffffffffffffffffffffffffffff1673ffffffffffffffffffffffffffffffffffffffff1681526020019081526020016000206000828254610bfb919061379c565b9250508190555050565b60075481565b6000806000600560008681526020019081526020016000206040518060400160405290816000820160009054906101000a900473ffffffffffffffffffffffffffffffffffffffff1673ffffffffffffffffffffffffffffffffffffffff1673ffffffffffffffffffffffffffffffffffffffff1681526020016000820160149054906101000a90046bffffffffffffffffffffffff166bffffffffffffffffffffffff166bffffffffffffffffffffffff16815250509050600073ffffffffffffffffffffffffffffffffffffffff16816000015173ffffffffffffffffffffffffffffffffffffffff1603610da05760046040518060400160405290816000820160009054906101000a900473ffffffffffffffffffffffffffffffffffffffff1673ffffffffffffffffffffffffffffffffffffffff1673ffffffffffffffffffffffffffffffffffffffff1681526020016000820160149054906101000a90046bffffffffffffffffffffffff166bffffffffffffffffffffffff166bffffffffffffffffffffffff168152505090505b6000610daa6116df565b6bffffffffffffffffffffffff1682602001516bffffffffffffffffffffffff1686610dd691906138da565b610de09190613963565b90508160000151819350935050509250929050565b610dfd6116e9565b73ffffffffffffffffffffffffffffffffffffffff168573ffffffffffffffffffffffffffffffffffffffff161480610e435750610e4285610e3d6116e9565b611248565b5b610e82576040517f08c379a0000000000000000000000000000000000000000000000000000000008152600401610e7990613a06565b60405180910390fd5b610e8f85858585856116f1565b5050505050565b610e9e611a12565b6000610ea8611117565b73ffffffffffffffffffffffffffffffffffffffff1647604051610ecb90613a57565b60006040518083038185875af1925050503d8060008114610f08576040519150601f19603f3d011682016040523d82523d6000602084013e610f0d565b606091505b5050905080610f1b57600080fd5b50565b600b5481565b60608151835114610f6a576040517f08c379a0000000000000000000000000000000000000000000000000000000008152600401610f6190613ade565b60405180910390fd5b6000835167ffffffffffffffff811115610f8757610f86612f30565b5b604051908082528060200260200182016040528015610fb55781602001602082028036833780820191505090505b50905060005b845181101561103257611002858281518110610fda57610fd9613afe565b5b6020026020010151858381518110610ff557610ff4613afe565b5b60200260200101516106f3565b82828151811061101557611014613afe565b5b6020026020010181815250508061102b9061385e565b9050610fbb565b508091505092915050565b6000806110498361120d565b119050919050565b6110596116e9565b73ffffffffffffffffffffffffffffffffffffffff168373ffffffffffffffffffffffffffffffffffffffff16148061109f575061109e836110996116e9565b611248565b5b6110de576040517f08c379a00000000000000000000000000000000000000000000000000000000081526004016110d590613a06565b60405180910390fd5b6110e9838383611a90565b505050565b6110f6611a12565b6111006000611d5e565b565b600081426111109190613b2d565b9050919050565b6000600660009054906101000a900473ffffffffffffffffffffffffffffffffffffffff16905090565b6060600d80546111509061373c565b80601f016020809104026020016040519081016040528092919081815260200182805461117c9061373c565b80156111c95780601f1061119e576101008083540402835291602001916111c9565b820191906000526020600020905b8154815290600101906020018083116111ac57829003601f168201915b5050505050905090565b600f5481565b6111eb6111e46116e9565b8383611e24565b5050565b600a6020528060005260406000206000915090508060000154905081565b600060036000838152602001908152602001600020549050919050565b60086020528060005260406000206000915090505481565b6104e281565b6000600160008473ffffffffffffffffffffffffffffffffffffffff1673ffffffffffffffffffffffffffffffffffffffff16815260200190815260200160002060008373ffffffffffffffffffffffffffffffffffffffff1673ffffffffffffffffffffffffffffffffffffffff16815260200190815260200160002060009054906101000a900460ff16905092915050565b60096020528060005260406000206000915090505481565b6112fc6116e9565b73ffffffffffffffffffffffffffffffffffffffff168573ffffffffffffffffffffffffffffffffffffffff16148061134257506113418561133c6116e9565b611248565b5b611381576040517f08c379a000000000000000000000000000000000000000000000000000000000815260040161137890613a06565b60405180910390fd5b61138e8585858585611f90565b5050505050565b61139d611a12565b600073ffffffffffffffffffffffffffffffffffffffff168173ffffffffffffffffffffffffffffffffffffffff160361140c576040517f08c379a000000000000000000000000000000000000000000000000000000000815260040161140390613bd0565b60405180910390fd5b61141581611d5e565b50565b6114206116e9565b73ffffffffffffffffffffffffffffffffffffffff168373ffffffffffffffffffffffffffffffffffffffff1614806114665750611465836114606116e9565b611248565b5b6114a5576040517f08c379a000000000000000000000000000000000000000000000000000000000815260040161149c90613a06565b60405180910390fd5b6114b083838361222b565b505050565b60007f2a55205a000000000000000000000000000000000000000000000000000000007bffffffffffffffffffffffffffffffffffffffffffffffffffffffff1916827bffffffffffffffffffffffffffffffffffffffffffffffffffffffff19161480611528575061152782612471565b5b9050919050565b600073ffffffffffffffffffffffffffffffffffffffff168473ffffffffffffffffffffffffffffffffffffffff160361159e576040517f08c379a000000000000000000000000000000000000000000000000000000000815260040161159590613c62565b60405180910390fd5b60006115a86116e9565b905060006115b585612553565b905060006115c285612553565b90506115d3836000898585896125cd565b8460008088815260200190815260200160002060008973ffffffffffffffffffffffffffffffffffffffff1673ffffffffffffffffffffffffffffffffffffffff1681526020019081526020016000206000828254611632919061379c565b925050819055508673ffffffffffffffffffffffffffffffffffffffff16600073ffffffffffffffffffffffffffffffffffffffff168473ffffffffffffffffffffffffffffffffffffffff167fc3d58168c5ae7397731d063d5bbf3d657854427343f4c083240f7aacaa2d0f6289896040516116b0929190613c82565b60405180910390a46116c7836000898585896125e3565b6116d6836000898989896125eb565b50505050505050565b6000612710905090565b600033905090565b8151835114611735576040517f08c379a000000000000000000000000000000000000000000000000000000000815260040161172c90613d1d565b60405180910390fd5b600073ffffffffffffffffffffffffffffffffffffffff168473ffffffffffffffffffffffffffffffffffffffff16036117a4576040517f08c379a000000000000000000000000000000000000000000000000000000000815260040161179b90613daf565b60405180910390fd5b60006117ae6116e9565b90506117be8187878787876125cd565b60005b845181101561196f5760008582815181106117df576117de613afe565b5b6020026020010151905060008583815181106117fe576117fd613afe565b5b60200260200101519050600080600084815260200190815260200160002060008b73ffffffffffffffffffffffffffffffffffffffff1673ffffffffffffffffffffffffffffffffffffffff1681526020019081526020016000205490508181101561189f576040517f08c379a000000000000000000000000000000000000000000000000000000000815260040161189690613e41565b60405180910390fd5b81810360008085815260200190815260200160002060008c73ffffffffffffffffffffffffffffffffffffffff1673ffffffffffffffffffffffffffffffffffffffff168152602001908152602001600020819055508160008085815260200190815260200160002060008b73ffffffffffffffffffffffffffffffffffffffff1673ffffffffffffffffffffffffffffffffffffffff1681526020019081526020016000206000828254611954919061379c565b92505081905550505050806119689061385e565b90506117c1565b508473ffffffffffffffffffffffffffffffffffffffff168673ffffffffffffffffffffffffffffffffffffffff168273ffffffffffffffffffffffffffffffffffffffff167f4a39dc06d4c0dbc64b70af90fd698a233a518aa5d07e595d983b8c0526c8f7fb87876040516119e6929190613e61565b60405180910390a46119fc8187878787876125e3565b611a0a8187878787876127c2565b505050505050565b611a1a6116e9565b73ffffffffffffffffffffffffffffffffffffffff16611a38611117565b73ffffffffffffffffffffffffffffffffffffffff1614611a8e576040517f08c379a0000000000000000000000000000000000000000000000000000000008152600401611a8590613ee4565b60405180910390fd5b565b600073ffffffffffffffffffffffffffffffffffffffff168373ffffffffffffffffffffffffffffffffffffffff1603611aff576040517f08c379a0000000000000000000000000000000000000000000000000000000008152600401611af690613f76565b60405180910390fd5b8051825114611b43576040517f08c379a0000000000000000000000000000000000000000000000000000000008152600401611b3a90613d1d565b60405180910390fd5b6000611b4d6116e9565b9050611b6d818560008686604051806020016040528060008152506125cd565b60005b8351811015611cba576000848281518110611b8e57611b8d613afe565b5b602002602001015190506000848381518110611bad57611bac613afe565b5b60200260200101519050600080600084815260200190815260200160002060008973ffffffffffffffffffffffffffffffffffffffff1673ffffffffffffffffffffffffffffffffffffffff16815260200190815260200160002054905081811015611c4e576040517f08c379a0000000000000000000000000000000000000000000000000000000008152600401611c4590614008565b60405180910390fd5b81810360008085815260200190815260200160002060008a73ffffffffffffffffffffffffffffffffffffffff1673ffffffffffffffffffffffffffffffffffffffff168152602001908152602001600020819055505050508080611cb29061385e565b915050611b70565b50600073ffffffffffffffffffffffffffffffffffffffff168473ffffffffffffffffffffffffffffffffffffffff168273ffffffffffffffffffffffffffffffffffffffff167f4a39dc06d4c0dbc64b70af90fd698a233a518aa5d07e595d983b8c0526c8f7fb8686604051611d32929190613e61565b60405180910390a4611d58818560008686604051806020016040528060008152506125e3565b50505050565b6000600660009054906101000a900473ffffffffffffffffffffffffffffffffffffffff16905081600660006101000a81548173ffffffffffffffffffffffffffffffffffffffff021916908373ffffffffffffffffffffffffffffffffffffffff1602179055508173ffffffffffffffffffffffffffffffffffffffff168173ffffffffffffffffffffffffffffffffffffffff167f8be0079c531659141344cd1fd0a4f28419497f9722a3daafe3b4186f6b6457e060405160405180910390a35050565b8173ffffffffffffffffffffffffffffffffffffffff168373ffffffffffffffffffffffffffffffffffffffff1603611e92576040517f08c379a0000000000000000000000000000000000000000000000000000000008152600401611e899061409a565b60405180910390fd5b80600160008573ffffffffffffffffffffffffffffffffffffffff1673ffffffffffffffffffffffffffffffffffffffff16815260200190815260200160002060008473ffffffffffffffffffffffffffffffffffffffff1673ffffffffffffffffffffffffffffffffffffffff16815260200190815260200160002060006101000a81548160ff0219169083151502179055508173ffffffffffffffffffffffffffffffffffffffff168373ffffffffffffffffffffffffffffffffffffffff167f17307eab39ab6107e8899845ad3d59bd9653f200f220920489ca2b5937696c3183604051611f839190612db0565b60405180910390a3505050565b600073ffffffffffffffffffffffffffffffffffffffff168473ffffffffffffffffffffffffffffffffffffffff1603611fff576040517f08c379a0000000000000000000000000000000000000000000000000000000008152600401611ff690613daf565b60405180910390fd5b60006120096116e9565b9050600061201685612553565b9050600061202385612553565b90506120338389898585896125cd565b600080600088815260200190815260200160002060008a73ffffffffffffffffffffffffffffffffffffffff1673ffffffffffffffffffffffffffffffffffffffff168152602001908152602001600020549050858110156120ca576040517f08c379a00000000000000000000000000000000000000000000000000000000081526004016120c190613e41565b60405180910390fd5b85810360008089815260200190815260200160002060008b73ffffffffffffffffffffffffffffffffffffffff1673ffffffffffffffffffffffffffffffffffffffff168152602001908152602001600020819055508560008089815260200190815260200160002060008a73ffffffffffffffffffffffffffffffffffffffff1673ffffffffffffffffffffffffffffffffffffffff168152602001908152602001600020600082825461217f919061379c565b925050819055508773ffffffffffffffffffffffffffffffffffffffff168973ffffffffffffffffffffffffffffffffffffffff168573ffffffffffffffffffffffffffffffffffffffff167fc3d58168c5ae7397731d063d5bbf3d657854427343f4c083240f7aacaa2d0f628a8a6040516121fc929190613c82565b60405180910390a4612212848a8a86868a6125e3565b612220848a8a8a8a8a6125eb565b505050505050505050565b600073ffffffffffffffffffffffffffffffffffffffff168373ffffffffffffffffffffffffffffffffffffffff160361229a576040517f08c379a000000000000000000000000000000000000000000000000000000000815260040161229190613f76565b60405180910390fd5b60006122a46116e9565b905060006122b184612553565b905060006122be84612553565b90506122de838760008585604051806020016040528060008152506125cd565b600080600087815260200190815260200160002060008873ffffffffffffffffffffffffffffffffffffffff1673ffffffffffffffffffffffffffffffffffffffff16815260200190815260200160002054905084811015612375576040517f08c379a000000000000000000000000000000000000000000000000000000000815260040161236c90614008565b60405180910390fd5b84810360008088815260200190815260200160002060008973ffffffffffffffffffffffffffffffffffffffff1673ffffffffffffffffffffffffffffffffffffffff16815260200190815260200160002081905550600073ffffffffffffffffffffffffffffffffffffffff168773ffffffffffffffffffffffffffffffffffffffff168573ffffffffffffffffffffffffffffffffffffffff167fc3d58168c5ae7397731d063d5bbf3d657854427343f4c083240f7aacaa2d0f628989604051612442929190613c82565b60405180910390a4612468848860008686604051806020016040528060008152506125e3565b50505050505050565b60007fd9b67a26000000000000000000000000000000000000000000000000000000007bffffffffffffffffffffffffffffffffffffffffffffffffffffffff1916827bffffffffffffffffffffffffffffffffffffffffffffffffffffffff1916148061253c57507f0e89341c000000000000000000000000000000000000000000000000000000007bffffffffffffffffffffffffffffffffffffffffffffffffffffffff1916827bffffffffffffffffffffffffffffffffffffffffffffffffffffffff1916145b8061254c575061254b82612999565b5b9050919050565b60606000600167ffffffffffffffff81111561257257612571612f30565b5b6040519080825280602002602001820160405280156125a05781602001602082028036833780820191505090505b50905082816000815181106125b8576125b7613afe565b5b60200260200101818152505080915050919050565b6125db868686868686612a03565b505050505050565b505050505050565b61260a8473ffffffffffffffffffffffffffffffffffffffff16612bd3565b156127ba578373ffffffffffffffffffffffffffffffffffffffff1663f23a6e6187878686866040518663ffffffff1660e01b815260040161265095949392919061410f565b6020604051808303816000875af192505050801561268c57506040513d601f19601f82011682018060405250810190612689919061417e565b60015b612731576126986141b8565b806308c379a0036126f457506126ac6141da565b806126b757506126f6565b806040517f08c379a00000000000000000000000000000000000000000000000000000000081526004016126eb9190612e64565b60405180910390fd5b505b6040517f08c379a0000000000000000000000000000000000000000000000000000000008152600401612728906142dc565b60405180910390fd5b63f23a6e6160e01b7bffffffffffffffffffffffffffffffffffffffffffffffffffffffff1916817bffffffffffffffffffffffffffffffffffffffffffffffffffffffff1916146127b8576040517f08c379a00000000000000000000000000000000000000000000000000000000081526004016127af9061436e565b60405180910390fd5b505b505050505050565b6127e18473ffffffffffffffffffffffffffffffffffffffff16612bd3565b15612991578373ffffffffffffffffffffffffffffffffffffffff1663bc197c8187878686866040518663ffffffff1660e01b815260040161282795949392919061438e565b6020604051808303816000875af192505050801561286357506040513d601f19601f82011682018060405250810190612860919061417e565b60015b6129085761286f6141b8565b806308c379a0036128cb57506128836141da565b8061288e57506128cd565b806040517f08c379a00000000000000000000000000000000000000000000000000000000081526004016128c29190612e64565b60405180910390fd5b505b6040517f08c379a00000000000000000000000000000000000000000000000000000000081526004016128ff906142dc565b60405180910390fd5b63bc197c8160e01b7bffffffffffffffffffffffffffffffffffffffffffffffffffffffff1916817bffffffffffffffffffffffffffffffffffffffffffffffffffffffff19161461298f576040517f08c379a00000000000000000000000000000000000000000000000000000000081526004016129869061436e565b60405180910390fd5b505b505050505050565b60007f01ffc9a7000000000000000000000000000000000000000000000000000000007bffffffffffffffffffffffffffffffffffffffffffffffffffffffff1916827bffffffffffffffffffffffffffffffffffffffffffffffffffffffff1916149050919050565b612a11868686868686612bf6565b600073ffffffffffffffffffffffffffffffffffffffff168573ffffffffffffffffffffffffffffffffffffffff1603612ac25760005b8351811015612ac057828181518110612a6457612a63613afe565b5b602002602001015160036000868481518110612a8357612a82613afe565b5b602002602001015181526020019081526020016000206000828254612aa8919061379c565b9250508190555080612ab99061385e565b9050612a48565b505b600073ffffffffffffffffffffffffffffffffffffffff168473ffffffffffffffffffffffffffffffffffffffff1603612bcb5760005b8351811015612bc9576000848281518110612b1757612b16613afe565b5b602002602001015190506000848381518110612b3657612b35613afe565b5b6020026020010151905060006003600084815260200190815260200160002054905081811015612b9b576040517f08c379a0000000000000000000000000000000000000000000000000000000008152600401612b9290614468565b60405180910390fd5b818103600360008581526020019081526020016000208190555050505080612bc29061385e565b9050612af9565b505b505050505050565b6000808273ffffffffffffffffffffffffffffffffffffffff163b119050919050565b505050505050565b6000604051905090565b600080fd5b600080fd5b600073ffffffffffffffffffffffffffffffffffffffff82169050919050565b6000612c3d82612c12565b9050919050565b612c4d81612c32565b8114612c5857600080fd5b50565b600081359050612c6a81612c44565b92915050565b6000819050919050565b612c8381612c70565b8114612c8e57600080fd5b50565b600081359050612ca081612c7a565b92915050565b60008060408385031215612cbd57612cbc612c08565b5b6000612ccb85828601612c5b565b9250506020612cdc85828601612c91565b9150509250929050565b612cef81612c70565b82525050565b6000602082019050612d0a6000830184612ce6565b92915050565b60007fffffffff0000000000000000000000000000000000000000000000000000000082169050919050565b612d4581612d10565b8114612d5057600080fd5b50565b600081359050612d6281612d3c565b92915050565b600060208284031215612d7e57612d7d612c08565b5b6000612d8c84828501612d53565b91505092915050565b60008115159050919050565b612daa81612d95565b82525050565b6000602082019050612dc56000830184612da1565b92915050565b600081519050919050565b600082825260208201905092915050565b60005b83811015612e05578082015181840152602081019050612dea565b83811115612e14576000848401525b50505050565b6000601f19601f8301169050919050565b6000612e3682612dcb565b612e408185612dd6565b9350612e50818560208601612de7565b612e5981612e1a565b840191505092915050565b60006020820190508181036000830152612e7e8184612e2b565b905092915050565b600060208284031215612e9c57612e9b612c08565b5b6000612eaa84828501612c91565b91505092915050565b60008060408385031215612eca57612ec9612c08565b5b6000612ed885828601612c91565b9250506020612ee985828601612c91565b9150509250929050565b612efc81612c32565b82525050565b6000604082019050612f176000830185612ef3565b612f246020830184612ce6565b9392505050565b600080fd5b7f4e487b7100000000000000000000000000000000000000000000000000000000600052604160045260246000fd5b612f6882612e1a565b810181811067ffffffffffffffff82111715612f8757612f86612f30565b5b80604052505050565b6000612f9a612bfe565b9050612fa68282612f5f565b919050565b600067ffffffffffffffff821115612fc657612fc5612f30565b5b602082029050602081019050919050565b600080fd5b6000612fef612fea84612fab565b612f90565b9050808382526020820190506020840283018581111561301257613011612fd7565b5b835b8181101561303b57806130278882612c91565b845260208401935050602081019050613014565b5050509392505050565b600082601f83011261305a57613059612f2b565b5b813561306a848260208601612fdc565b91505092915050565b600080fd5b600067ffffffffffffffff82111561309357613092612f30565b5b61309c82612e1a565b9050602081019050919050565b82818337600083830152505050565b60006130cb6130c684613078565b612f90565b9050828152602081018484840111156130e7576130e6613073565b5b6130f28482856130a9565b509392505050565b600082601f83011261310f5761310e612f2b565b5b813561311f8482602086016130b8565b91505092915050565b600080600080600060a0868803121561314457613143612c08565b5b600061315288828901612c5b565b955050602061316388828901612c5b565b945050604086013567ffffffffffffffff81111561318457613183612c0d565b5b61319088828901613045565b935050606086013567ffffffffffffffff8111156131b1576131b0612c0d565b5b6131bd88828901613045565b925050608086013567ffffffffffffffff8111156131de576131dd612c0d565b5b6131ea888289016130fa565b9150509295509295909350565b600067ffffffffffffffff82111561321257613211612f30565b5b602082029050602081019050919050565b6000613236613231846131f7565b612f90565b9050808382526020820190506020840283018581111561325957613258612fd7565b5b835b81811015613282578061326e8882612c5b565b84526020840193505060208101905061325b565b5050509392505050565b600082601f8301126132a1576132a0612f2b565b5b81356132b1848260208601613223565b91505092915050565b600080604083850312156132d1576132d0612c08565b5b600083013567ffffffffffffffff8111156132ef576132ee612c0d565b5b6132fb8582860161328c565b925050602083013567ffffffffffffffff81111561331c5761331b612c0d565b5b61332885828601613045565b9150509250929050565b600081519050919050565b600082825260208201905092915050565b6000819050602082019050919050565b61336781612c70565b82525050565b6000613379838361335e565b60208301905092915050565b6000602082019050919050565b600061339d82613332565b6133a7818561333d565b93506133b28361334e565b8060005b838110156133e35781516133ca888261336d565b97506133d583613385565b9250506001810190506133b6565b5085935050505092915050565b6000602082019050818103600083015261340a8184613392565b905092915050565b60008060006060848603121561342b5761342a612c08565b5b600061343986828701612c5b565b935050602084013567ffffffffffffffff81111561345a57613459612c0d565b5b61346686828701613045565b925050604084013567ffffffffffffffff81111561348757613486612c0d565b5b61349386828701613045565b9150509250925092565b60006020820190506134b26000830184612ef3565b92915050565b6134c181612d95565b81146134cc57600080fd5b50565b6000813590506134de816134b8565b92915050565b600080604083850312156134fb576134fa612c08565b5b600061350985828601612c5b565b925050602061351a858286016134cf565b9150509250929050565b6000806040838503121561353b5761353a612c08565b5b600061354985828601612c5b565b925050602061355a85828601612c5b565b9150509250929050565b60006020828403121561357a57613579612c08565b5b600061358884828501612c5b565b91505092915050565b600080600080600060a086880312156135ad576135ac612c08565b5b60006135bb88828901612c5b565b95505060206135cc88828901612c5b565b94505060406135dd88828901612c91565b93505060606135ee88828901612c91565b925050608086013567ffffffffffffffff81111561360f5761360e612c0d565b5b61361b888289016130fa565b9150509295509295909350565b60008060006060848603121561364157613640612c08565b5b600061364f86828701612c5b565b935050602061366086828701612c91565b925050604061367186828701612c91565b9150509250925092565b7f455243313135353a2061646472657373207a65726f206973206e6f742061207660008201527f616c6964206f776e657200000000000000000000000000000000000000000000602082015250565b60006136d7602a83612dd6565b91506136e28261367b565b604082019050919050565b60006020820190508181036000830152613706816136ca565b9050919050565b7f4e487b7100000000000000000000000000000000000000000000000000000000600052602260045260246000fd5b6000600282049050600182168061375457607f821691505b6020821081036137675761376661370d565b5b50919050565b7f4e487b7100000000000000000000000000000000000000000000000000000000600052601160045260246000fd5b60006137a782612c70565b91506137b283612c70565b9250827fffffffffffffffffffffffffffffffffffffffffffffffffffffffffffffffff038211156137e7576137e661376d565b5b828201905092915050565b7f4d617820737570706c7920657863656564656421000000000000000000000000600082015250565b6000613828601483612dd6565b9150613833826137f2565b602082019050919050565b600060208201905081810360008301526138578161381b565b9050919050565b600061386982612c70565b91507fffffffffffffffffffffffffffffffffffffffffffffffffffffffffffffffff820361389b5761389a61376d565b5b600182019050919050565b60006138b182612c70565b91506138bc83612c70565b9250828210156138cf576138ce61376d565b5b828203905092915050565b60006138e582612c70565b91506138f083612c70565b9250817fffffffffffffffffffffffffffffffffffffffffffffffffffffffffffffffff04831182151516156139295761392861376d565b5b828202905092915050565b7f4e487b7100000000000000000000000000000000000000000000000000000000600052601260045260246000fd5b600061396e82612c70565b915061397983612c70565b92508261398957613988613934565b5b828204905092915050565b7f455243313135353a2063616c6c6572206973206e6f7420746f6b656e206f776e60008201527f6572206e6f7220617070726f7665640000000000000000000000000000000000602082015250565b60006139f0602f83612dd6565b91506139fb82613994565b604082019050919050565b60006020820190508181036000830152613a1f816139e3565b9050919050565b600081905092915050565b50565b6000613a41600083613a26565b9150613a4c82613a31565b600082019050919050565b6000613a6282613a34565b9150819050919050565b7f455243313135353a206163636f756e747320616e6420696473206c656e67746860008201527f206d69736d617463680000000000000000000000000000000000000000000000602082015250565b6000613ac8602983612dd6565b9150613ad382613a6c565b604082019050919050565b60006020820190508181036000830152613af781613abb565b9050919050565b7f4e487b7100000000000000000000000000000000000000000000000000000000600052603260045260246000fd5b6000613b3882612c70565b9150613b4383612c70565b925082613b5357613b52613934565b5b828206905092915050565b7f4f776e61626c653a206e6577206f776e657220697320746865207a65726f206160008201527f6464726573730000000000000000000000000000000000000000000000000000602082015250565b6000613bba602683612dd6565b9150613bc582613b5e565b604082019050919050565b60006020820190508181036000830152613be981613bad565b9050919050565b7f455243313135353a206d696e7420746f20746865207a65726f2061646472657360008201527f7300000000000000000000000000000000000000000000000000000000000000602082015250565b6000613c4c602183612dd6565b9150613c5782613bf0565b604082019050919050565b60006020820190508181036000830152613c7b81613c3f565b9050919050565b6000604082019050613c976000830185612ce6565b613ca46020830184612ce6565b9392505050565b7f455243313135353a2069647320616e6420616d6f756e7473206c656e6774682060008201527f6d69736d61746368000000000000000000000000000000000000000000000000602082015250565b6000613d07602883612dd6565b9150613d1282613cab565b604082019050919050565b60006020820190508181036000830152613d3681613cfa565b9050919050565b7f455243313135353a207472616e7366657220746f20746865207a65726f20616460008201527f6472657373000000000000000000000000000000000000000000000000000000602082015250565b6000613d99602583612dd6565b9150613da482613d3d565b604082019050919050565b60006020820190508181036000830152613dc881613d8c565b9050919050565b7f455243313135353a20696e73756666696369656e742062616c616e636520666f60008201527f72207472616e7366657200000000000000000000000000000000000000000000602082015250565b6000613e2b602a83612dd6565b9150613e3682613dcf565b604082019050919050565b60006020820190508181036000830152613e5a81613e1e565b9050919050565b60006040820190508181036000830152613e7b8185613392565b90508181036020830152613e8f8184613392565b90509392505050565b7f4f776e61626c653a2063616c6c6572206973206e6f7420746865206f776e6572600082015250565b6000613ece602083612dd6565b9150613ed982613e98565b602082019050919050565b60006020820190508181036000830152613efd81613ec1565b9050919050565b7f455243313135353a206275726e2066726f6d20746865207a65726f206164647260008201527f6573730000000000000000000000000000000000000000000000000000000000602082015250565b6000613f60602383612dd6565b9150613f6b82613f04565b604082019050919050565b60006020820190508181036000830152613f8f81613f53565b9050919050565b7f455243313135353a206275726e20616d6f756e7420657863656564732062616c60008201527f616e636500000000000000000000000000000000000000000000000000000000602082015250565b6000613ff2602483612dd6565b9150613ffd82613f96565b604082019050919050565b6000602082019050818103600083015261402181613fe5565b9050919050565b7f455243313135353a2073657474696e6720617070726f76616c2073746174757360008201527f20666f722073656c660000000000000000000000000000000000000000000000602082015250565b6000614084602983612dd6565b915061408f82614028565b604082019050919050565b600060208201905081810360008301526140b381614077565b9050919050565b600081519050919050565b600082825260208201905092915050565b60006140e1826140ba565b6140eb81856140c5565b93506140fb818560208601612de7565b61410481612e1a565b840191505092915050565b600060a0820190506141246000830188612ef3565b6141316020830187612ef3565b61413e6040830186612ce6565b61414b6060830185612ce6565b818103608083015261415d81846140d6565b90509695505050505050565b60008151905061417881612d3c565b92915050565b60006020828403121561419457614193612c08565b5b60006141a284828501614169565b91505092915050565b60008160e01c9050919050565b600060033d11156141d75760046000803e6141d46000516141ab565b90505b90565b600060443d10614267576141ec612bfe565b60043d036004823e80513d602482011167ffffffffffffffff82111715614214575050614267565b808201805167ffffffffffffffff8111156142325750505050614267565b80602083010160043d03850181111561424f575050505050614267565b61425e82602001850186612f5f565b82955050505050505b90565b7f455243313135353a207472616e7366657220746f206e6f6e204552433131353560008201527f526563656976657220696d706c656d656e746572000000000000000000000000602082015250565b60006142c6603483612dd6565b91506142d18261426a565b604082019050919050565b600060208201905081810360008301526142f5816142b9565b9050919050565b7f455243313135353a204552433131353552656365697665722072656a6563746560008201527f6420746f6b656e73000000000000000000000000000000000000000000000000602082015250565b6000614358602883612dd6565b9150614363826142fc565b604082019050919050565b600060208201905081810360008301526143878161434b565b9050919050565b600060a0820190506143a36000830188612ef3565b6143b06020830187612ef3565b81810360408301526143c28186613392565b905081810360608301526143d68185613392565b905081810360808301526143ea81846140d6565b90509695505050505050565b7f455243313135353a206275726e20616d6f756e74206578636565647320746f7460008201527f616c537570706c79000000000000000000000000000000000000000000000000602082015250565b6000614452602883612dd6565b915061445d826143f6565b604082019050919050565b6000602082019050818103600083015261448181614445565b905091905056fea264697066735822122086c0d22f6b6ef62710eea3e42e7c24d70a58595f9d72af8e8ebae227ba900a6164736f6c634300080e003368747470733a2f2f676174657761792e70696e6174612e636c6f75642f697066732f516d556259667554474e704e6646644d7a536d6b53565a784335694768614470635238594838674a67446232786f2f7b69647d2e6a736f6e",
  "devdoc": {
    "kind": "dev",
    "methods": {
      "balanceOf(address,uint256)": {
        "details": "See {IERC1155-balanceOf}. Requirements: - `account` cannot be the zero address."
      },
      "balanceOfBatch(address[],uint256[])": {
        "details": "See {IERC1155-balanceOfBatch}. Requirements: - `accounts` and `ids` must have the same length."
      },
      "exists(uint256)": {
        "details": "Indicates whether any token exist with a given id, or not."
      },
      "isApprovedForAll(address,address)": {
        "details": "See {IERC1155-isApprovedForAll}."
      },
      "owner()": {
        "details": "Returns the address of the current owner."
      },
      "renounceOwnership()": {
        "details": "Leaves the contract without owner. It will not be possible to call `onlyOwner` functions anymore. Can only be called by the current owner. NOTE: Renouncing ownership will leave the contract without an owner, thereby removing any functionality that is only available to the owner."
      },
      "royaltyInfo(uint256,uint256)": {
        "details": "Returns how much royalty is owed and to whom, based on a sale price that may be denominated in any unit of exchange. The royalty amount is denominated and should be paid in that same unit of exchange."
      },
      "safeBatchTransferFrom(address,address,uint256[],uint256[],bytes)": {
        "details": "See {IERC1155-safeBatchTransferFrom}."
      },
      "safeTransferFrom(address,address,uint256,uint256,bytes)": {
        "details": "See {IERC1155-safeTransferFrom}."
      },
      "setApprovalForAll(address,bool)": {
        "details": "See {IERC1155-setApprovalForAll}."
      },
      "totalSupply(uint256)": {
        "details": "Total amount of tokens in with a given id."
      },
      "transferOwnership(address)": {
        "details": "Transfers ownership of the contract to a new account (`newOwner`). Can only be called by the current owner."
      },
      "uri(uint256)": {
        "details": "See {IERC1155MetadataURI-uri}. This implementation returns the same URI for *all* token types. It relies on the token type ID substitution mechanism https://eips.ethereum.org/EIPS/eip-1155#metadata[defined in the EIP]. Clients calling this function must replace the `\\{id\\}` substring with the actual token type ID."
      }
    },
    "version": 1
  },
  "userdoc": {
    "kind": "user",
    "methods": {},
    "version": 1
  },
  "storageLayout": {
    "storage": [
      {
        "astId": 157,
        "contract": "contracts/ERC1155/Nyancat.sol:Nyancat",
        "label": "_balances",
        "offset": 0,
        "slot": "0",
        "type": "t_mapping(t_uint256,t_mapping(t_address,t_uint256))"
      },
      {
        "astId": 163,
        "contract": "contracts/ERC1155/Nyancat.sol:Nyancat",
        "label": "_operatorApprovals",
        "offset": 0,
        "slot": "1",
        "type": "t_mapping(t_address,t_mapping(t_address,t_bool))"
      },
      {
        "astId": 165,
        "contract": "contracts/ERC1155/Nyancat.sol:Nyancat",
        "label": "_uri",
        "offset": 0,
        "slot": "2",
        "type": "t_string_storage"
      },
      {
        "astId": 1596,
        "contract": "contracts/ERC1155/Nyancat.sol:Nyancat",
        "label": "_totalSupply",
        "offset": 0,
        "slot": "3",
        "type": "t_mapping(t_uint256,t_uint256)"
      },
      {
        "astId": 2803,
        "contract": "contracts/ERC1155/Nyancat.sol:Nyancat",
        "label": "_defaultRoyaltyInfo",
        "offset": 0,
        "slot": "4",
        "type": "t_struct(RoyaltyInfo)2800_storage"
      },
      {
        "astId": 2808,
        "contract": "contracts/ERC1155/Nyancat.sol:Nyancat",
        "label": "_tokenRoyaltyInfo",
        "offset": 0,
        "slot": "5",
        "type": "t_mapping(t_uint256,t_struct(RoyaltyInfo)2800_storage)"
      },
      {
        "astId": 7,
        "contract": "contracts/ERC1155/Nyancat.sol:Nyancat",
        "label": "_owner",
        "offset": 0,
        "slot": "6",
        "type": "t_address"
      },
      {
        "astId": 4164,
        "contract": "contracts/ERC1155/Nyancat.sol:Nyancat",
        "label": "totalSupply",
        "offset": 0,
        "slot": "7",
        "type": "t_uint256"
      },
      {
        "astId": 4174,
        "contract": "contracts/ERC1155/Nyancat.sol:Nyancat",
        "label": "tokenIds",
        "offset": 0,
        "slot": "8",
        "type": "t_mapping(t_uint256,t_uint256)"
      },
      {
        "astId": 4178,
        "contract": "contracts/ERC1155/Nyancat.sol:Nyancat",
        "label": "mintCount",
        "offset": 0,
        "slot": "9",
        "type": "t_mapping(t_address,t_uint256)"
      },
      {
        "astId": 4183,
        "contract": "contracts/ERC1155/Nyancat.sol:Nyancat",
        "label": "avaliableToken",
        "offset": 0,
        "slot": "10",
        "type": "t_mapping(t_uint256,t_struct(tokenInfo)4170_storage)"
      },
      {
        "astId": 4186,
        "contract": "contracts/ERC1155/Nyancat.sol:Nyancat",
        "label": "avaliableTokens",
        "offset": 0,
        "slot": "11",
        "type": "t_uint256"
      },
      {
        "astId": 4189,
        "contract": "contracts/ERC1155/Nyancat.sol:Nyancat",
        "label": "_name",
        "offset": 0,
        "slot": "12",
        "type": "t_string_storage"
      },
      {
        "astId": 4192,
        "contract": "contracts/ERC1155/Nyancat.sol:Nyancat",
        "label": "_symbol",
        "offset": 0,
        "slot": "13",
        "type": "t_string_storage"
      },
      {
        "astId": 4195,
        "contract": "contracts/ERC1155/Nyancat.sol:Nyancat",
        "label": "_price",
        "offset": 0,
        "slot": "14",
        "type": "t_uint256"
      },
      {
        "astId": 4198,
        "contract": "contracts/ERC1155/Nyancat.sol:Nyancat",
        "label": "mintLimit",
        "offset": 0,
        "slot": "15",
        "type": "t_uint256"
      }
    ],
    "types": {
      "t_address": {
        "encoding": "inplace",
        "label": "address",
        "numberOfBytes": "20"
      },
      "t_bool": {
        "encoding": "inplace",
        "label": "bool",
        "numberOfBytes": "1"
      },
      "t_mapping(t_address,t_bool)": {
        "encoding": "mapping",
        "key": "t_address",
        "label": "mapping(address => bool)",
        "numberOfBytes": "32",
        "value": "t_bool"
      },
      "t_mapping(t_address,t_mapping(t_address,t_bool))": {
        "encoding": "mapping",
        "key": "t_address",
        "label": "mapping(address => mapping(address => bool))",
        "numberOfBytes": "32",
        "value": "t_mapping(t_address,t_bool)"
      },
      "t_mapping(t_address,t_uint256)": {
        "encoding": "mapping",
        "key": "t_address",
        "label": "mapping(address => uint256)",
        "numberOfBytes": "32",
        "value": "t_uint256"
      },
      "t_mapping(t_uint256,t_mapping(t_address,t_uint256))": {
        "encoding": "mapping",
        "key": "t_uint256",
        "label": "mapping(uint256 => mapping(address => uint256))",
        "numberOfBytes": "32",
        "value": "t_mapping(t_address,t_uint256)"
      },
      "t_mapping(t_uint256,t_struct(RoyaltyInfo)2800_storage)": {
        "encoding": "mapping",
        "key": "t_uint256",
        "label": "mapping(uint256 => struct ERC2981.RoyaltyInfo)",
        "numberOfBytes": "32",
        "value": "t_struct(RoyaltyInfo)2800_storage"
      },
      "t_mapping(t_uint256,t_struct(tokenInfo)4170_storage)": {
        "encoding": "mapping",
        "key": "t_uint256",
        "label": "mapping(uint256 => struct Nyancat.tokenInfo)",
        "numberOfBytes": "32",
        "value": "t_struct(tokenInfo)4170_storage"
      },
      "t_mapping(t_uint256,t_uint256)": {
        "encoding": "mapping",
        "key": "t_uint256",
        "label": "mapping(uint256 => uint256)",
        "numberOfBytes": "32",
        "value": "t_uint256"
      },
      "t_string_storage": {
        "encoding": "bytes",
        "label": "string",
        "numberOfBytes": "32"
      },
      "t_struct(RoyaltyInfo)2800_storage": {
        "encoding": "inplace",
        "label": "struct ERC2981.RoyaltyInfo",
        "members": [
          {
            "astId": 2797,
            "contract": "contracts/ERC1155/Nyancat.sol:Nyancat",
            "label": "receiver",
            "offset": 0,
            "slot": "0",
            "type": "t_address"
          },
          {
            "astId": 2799,
            "contract": "contracts/ERC1155/Nyancat.sol:Nyancat",
            "label": "royaltyFraction",
            "offset": 20,
            "slot": "0",
            "type": "t_uint96"
          }
        ],
        "numberOfBytes": "32"
      },
      "t_struct(tokenInfo)4170_storage": {
        "encoding": "inplace",
        "label": "struct Nyancat.tokenInfo",
        "members": [
          {
            "astId": 4169,
            "contract": "contracts/ERC1155/Nyancat.sol:Nyancat",
            "label": "tokenId",
            "offset": 0,
            "slot": "0",
            "type": "t_uint256"
          }
        ],
        "numberOfBytes": "32"
      },
      "t_uint256": {
        "encoding": "inplace",
        "label": "uint256",
        "numberOfBytes": "32"
      },
      "t_uint96": {
        "encoding": "inplace",
        "label": "uint96",
        "numberOfBytes": "12"
      }
    }
  }
}