{
  "address": "0x646095832CFFbABffA9D2f31586E866F2709540A",
  "abi": [
    {
      "inputs": [],
      "stateMutability": "nonpayable",
      "type": "constructor"
    },
    {
      "anonymous": false,
      "inputs": [
        {
          "indexed": true,
          "internalType": "address",
          "name": "owner",
          "type": "address"
        },
        {
          "indexed": true,
          "internalType": "address",
          "name": "approved",
          "type": "address"
        },
        {
          "indexed": true,
          "internalType": "uint256",
          "name": "tokenId",
          "type": "uint256"
        }
      ],
      "name": "Approval",
      "type": "event"
    },
    {
      "anonymous": false,
      "inputs": [
        {
          "indexed": true,
          "internalType": "address",
          "name": "owner",
          "type": "address"
        },
        {
          "indexed": true,
          "internalType": "address",
          "name": "operator",
          "type": "address"
        },
        {
          "indexed": false,
          "internalType": "bool",
          "name": "approved",
          "type": "bool"
        }
      ],
      "name": "ApprovalForAll",
      "type": "event"
    },
    {
      "anonymous": false,
      "inputs": [
        {
          "indexed": true,
          "internalType": "address",
          "name": "previousOwner",
          "type": "address"
        },
        {
          "indexed": true,
          "internalType": "address",
          "name": "newOwner",
          "type": "address"
        }
      ],
      "name": "OwnershipTransferred",
      "type": "event"
    },
    {
      "anonymous": false,
      "inputs": [
        {
          "indexed": true,
          "internalType": "address",
          "name": "from",
          "type": "address"
        },
        {
          "indexed": true,
          "internalType": "address",
          "name": "to",
          "type": "address"
        },
        {
          "indexed": true,
          "internalType": "uint256",
          "name": "tokenId",
          "type": "uint256"
        }
      ],
      "name": "Transfer",
      "type": "event"
    },
    {
      "inputs": [
        {
          "internalType": "address",
          "name": "to",
          "type": "address"
        },
        {
          "internalType": "uint256",
          "name": "tokenId",
          "type": "uint256"
        }
      ],
      "name": "approve",
      "outputs": [],
      "stateMutability": "nonpayable",
      "type": "function"
    },
    {
      "inputs": [
        {
          "internalType": "address",
          "name": "owner",
          "type": "address"
        }
      ],
      "name": "balanceOf",
      "outputs": [
        {
          "internalType": "uint256",
          "name": "",
          "type": "uint256"
        }
      ],
      "stateMutability": "view",
      "type": "function"
    },
    {
      "inputs": [
        {
          "internalType": "uint256",
          "name": "tokenId",
          "type": "uint256"
        }
      ],
      "name": "getApproved",
      "outputs": [
        {
          "internalType": "address",
          "name": "",
          "type": "address"
        }
      ],
      "stateMutability": "view",
      "type": "function"
    },
    {
      "inputs": [],
      "name": "getPublicMintCount",
      "outputs": [
        {
          "internalType": "uint256",
          "name": "",
          "type": "uint256"
        }
      ],
      "stateMutability": "view",
      "type": "function"
    },
    {
      "inputs": [
        {
          "internalType": "address",
          "name": "owner",
          "type": "address"
        },
        {
          "internalType": "address",
          "name": "operator",
          "type": "address"
        }
      ],
      "name": "isApprovedForAll",
      "outputs": [
        {
          "internalType": "bool",
          "name": "",
          "type": "bool"
        }
      ],
      "stateMutability": "view",
      "type": "function"
    },
    {
      "inputs": [],
      "name": "maxMintAmountPerTx",
      "outputs": [
        {
          "internalType": "uint256",
          "name": "",
          "type": "uint256"
        }
      ],
      "stateMutability": "view",
      "type": "function"
    },
    {
      "inputs": [],
      "name": "maxSupply",
      "outputs": [
        {
          "internalType": "uint256",
          "name": "",
          "type": "uint256"
        }
      ],
      "stateMutability": "view",
      "type": "function"
    },
    {
      "inputs": [],
      "name": "name",
      "outputs": [
        {
          "internalType": "string",
          "name": "",
          "type": "string"
        }
      ],
      "stateMutability": "view",
      "type": "function"
    },
    {
      "inputs": [],
      "name": "owner",
      "outputs": [
        {
          "internalType": "address",
          "name": "",
          "type": "address"
        }
      ],
      "stateMutability": "view",
      "type": "function"
    },
    {
      "inputs": [
        {
          "internalType": "uint256",
          "name": "tokenId",
          "type": "uint256"
        }
      ],
      "name": "ownerOf",
      "outputs": [
        {
          "internalType": "address",
          "name": "",
          "type": "address"
        }
      ],
      "stateMutability": "view",
      "type": "function"
    },
    {
      "inputs": [
        {
          "internalType": "uint256",
          "name": "_mintAmount",
          "type": "uint256"
        }
      ],
      "name": "publicMint",
      "outputs": [],
      "stateMutability": "payable",
      "type": "function"
    },
    {
      "inputs": [],
      "name": "publicMintCost",
      "outputs": [
        {
          "internalType": "uint256",
          "name": "",
          "type": "uint256"
        }
      ],
      "stateMutability": "view",
      "type": "function"
    },
    {
      "inputs": [
        {
          "internalType": "address",
          "name": "",
          "type": "address"
        }
      ],
      "name": "publicMintCount",
      "outputs": [
        {
          "internalType": "uint256",
          "name": "",
          "type": "uint256"
        }
      ],
      "stateMutability": "view",
      "type": "function"
    },
    {
      "inputs": [],
      "name": "renounceOwnership",
      "outputs": [],
      "stateMutability": "nonpayable",
      "type": "function"
    },
    {
      "inputs": [
        {
          "internalType": "address",
          "name": "from",
          "type": "address"
        },
        {
          "internalType": "address",
          "name": "to",
          "type": "address"
        },
        {
          "internalType": "uint256",
          "name": "tokenId",
          "type": "uint256"
        }
      ],
      "name": "safeTransferFrom",
      "outputs": [],
      "stateMutability": "nonpayable",
      "type": "function"
    },
    {
      "inputs": [
        {
          "internalType": "address",
          "name": "from",
          "type": "address"
        },
        {
          "internalType": "address",
          "name": "to",
          "type": "address"
        },
        {
          "internalType": "uint256",
          "name": "tokenId",
          "type": "uint256"
        },
        {
          "internalType": "bytes",
          "name": "data",
          "type": "bytes"
        }
      ],
      "name": "safeTransferFrom",
      "outputs": [],
      "stateMutability": "nonpayable",
      "type": "function"
    },
    {
      "inputs": [
        {
          "internalType": "address",
          "name": "operator",
          "type": "address"
        },
        {
          "internalType": "bool",
          "name": "approved",
          "type": "bool"
        }
      ],
      "name": "setApprovalForAll",
      "outputs": [],
      "stateMutability": "nonpayable",
      "type": "function"
    },
    {
      "inputs": [
        {
          "internalType": "bytes4",
          "name": "interfaceId",
          "type": "bytes4"
        }
      ],
      "name": "supportsInterface",
      "outputs": [
        {
          "internalType": "bool",
          "name": "",
          "type": "bool"
        }
      ],
      "stateMutability": "view",
      "type": "function"
    },
    {
      "inputs": [],
      "name": "symbol",
      "outputs": [
        {
          "internalType": "string",
          "name": "",
          "type": "string"
        }
      ],
      "stateMutability": "view",
      "type": "function"
    },
    {
      "inputs": [
        {
          "internalType": "uint256",
          "name": "_tokenId",
          "type": "uint256"
        }
      ],
      "name": "tokenURI",
      "outputs": [
        {
          "internalType": "string",
          "name": "",
          "type": "string"
        }
      ],
      "stateMutability": "view",
      "type": "function"
    },
    {
      "inputs": [],
      "name": "totalSupply",
      "outputs": [
        {
          "internalType": "uint256",
          "name": "",
          "type": "uint256"
        }
      ],
      "stateMutability": "view",
      "type": "function"
    },
    {
      "inputs": [
        {
          "internalType": "address",
          "name": "from",
          "type": "address"
        },
        {
          "internalType": "address",
          "name": "to",
          "type": "address"
        },
        {
          "internalType": "uint256",
          "name": "tokenId",
          "type": "uint256"
        }
      ],
      "name": "transferFrom",
      "outputs": [],
      "stateMutability": "nonpayable",
      "type": "function"
    },
    {
      "inputs": [
        {
          "internalType": "address",
          "name": "newOwner",
          "type": "address"
        }
      ],
      "name": "transferOwnership",
      "outputs": [],
      "stateMutability": "nonpayable",
      "type": "function"
    },
    {
      "inputs": [],
      "name": "uriPrefix",
      "outputs": [
        {
          "internalType": "string",
          "name": "",
          "type": "string"
        }
      ],
      "stateMutability": "view",
      "type": "function"
    },
    {
      "inputs": [],
      "name": "uriSuffix",
      "outputs": [
        {
          "internalType": "string",
          "name": "",
          "type": "string"
        }
      ],
      "stateMutability": "view",
      "type": "function"
    },
    {
      "inputs": [
        {
          "internalType": "address",
          "name": "_owner",
          "type": "address"
        }
      ],
      "name": "walletOfOwner",
      "outputs": [
        {
          "internalType": "uint256[]",
          "name": "",
          "type": "uint256[]"
        }
      ],
      "stateMutability": "view",
      "type": "function"
    },
    {
      "inputs": [],
      "name": "withdraw",
      "outputs": [],
      "stateMutability": "nonpayable",
      "type": "function"
    }
  ],
  "transactionHash": "0xd4b7d7201ce54438563a041b23cf5828ae3c6fa6274be4adf01680f96d09ad6e",
  "args": [],
  "numDeployments": 1,
  "solcInputHash": "a342a77e0ac7684f9d5ecc5c26afe2a2",
  "bytecode": "0x6080604052604051806060016040528060368152602001620039536036913960089080519060200190620000359291906200021b565b5060405180602001604052806000815250600990805190602001906200005d9291906200021b565b50662386f26fc10000600a55612710600b556002600c556002600d553480156200008657600080fd5b506040518060400160405280601181526020017f426f7265644170655961636874436c75620000000000000000000000000000008152506040518060400160405280600481526020017f424159430000000000000000000000000000000000000000000000000000000081525081600090805190602001906200010b9291906200021b565b508060019080519060200190620001249291906200021b565b505050620001476200013b6200014d60201b60201c565b6200015560201b60201c565b6200032f565b600033905090565b6000600660009054906101000a900473ffffffffffffffffffffffffffffffffffffffff16905081600660006101000a81548173ffffffffffffffffffffffffffffffffffffffff021916908373ffffffffffffffffffffffffffffffffffffffff1602179055508173ffffffffffffffffffffffffffffffffffffffff168173ffffffffffffffffffffffffffffffffffffffff167f8be0079c531659141344cd1fd0a4f28419497f9722a3daafe3b4186f6b6457e060405160405180910390a35050565b8280546200022990620002fa565b90600052602060002090601f0160209004810192826200024d576000855562000299565b82601f106200026857805160ff191683800117855562000299565b8280016001018555821562000299579182015b82811115620002985782518255916020019190600101906200027b565b5b509050620002a89190620002ac565b5090565b5b80821115620002c7576000816000905550600101620002ad565b5090565b7f4e487b7100000000000000000000000000000000000000000000000000000000600052602260045260246000fd5b600060028204905060018216806200031357607f821691505b602082108103620003295762000328620002cb565b5b50919050565b613614806200033f6000396000f3fe60806040526004361061019c5760003560e01c806370a08231116100ec57806396330b5f1161008a578063c87b56dd11610064578063c87b56dd146105a9578063d5abeb01146105e6578063e985e9c514610611578063f2fde38b1461064e5761019c565b806396330b5f1461051a578063a22cb46514610557578063b88d4fde146105805761019c565b80638c770067116100c65780638c7700671461046e5780638da5cb5b1461049957806394354fd0146104c457806395d89b41146104ef5761019c565b806370a08231146103ef578063715018a61461042c5780638283f30b146104435761019c565b80632db1154411610159578063438b630011610133578063438b63001461031f5780635503a0e81461035c57806362b99ad4146103875780636352211e146103b25761019c565b80632db11544146102c35780633ccfd60b146102df57806342842e0e146102f65761019c565b806301ffc9a7146101a157806306fdde03146101de578063081812fc14610209578063095ea7b31461024657806318160ddd1461026f57806323b872dd1461029a575b600080fd5b3480156101ad57600080fd5b506101c860048036038101906101c39190612214565b610677565b6040516101d5919061225c565b60405180910390f35b3480156101ea57600080fd5b506101f3610759565b6040516102009190612310565b60405180910390f35b34801561021557600080fd5b50610230600480360381019061022b9190612368565b6107eb565b60405161023d91906123d6565b60405180910390f35b34801561025257600080fd5b5061026d6004803603810190610268919061241d565b610831565b005b34801561027b57600080fd5b50610284610948565b604051610291919061246c565b60405180910390f35b3480156102a657600080fd5b506102c160048036038101906102bc9190612487565b610959565b005b6102dd60048036038101906102d89190612368565b6109b9565b005b3480156102eb57600080fd5b506102f4610ba7565b005b34801561030257600080fd5b5061031d60048036038101906103189190612487565b610c2f565b005b34801561032b57600080fd5b50610346600480360381019061034191906124da565b610c4f565b60405161035391906125c5565b60405180910390f35b34801561036857600080fd5b50610371610d59565b60405161037e9190612310565b60405180910390f35b34801561039357600080fd5b5061039c610de7565b6040516103a99190612310565b60405180910390f35b3480156103be57600080fd5b506103d960048036038101906103d49190612368565b610e75565b6040516103e691906123d6565b60405180910390f35b3480156103fb57600080fd5b50610416600480360381019061041191906124da565b610f26565b604051610423919061246c565b60405180910390f35b34801561043857600080fd5b50610441610fdd565b005b34801561044f57600080fd5b50610458610ff1565b604051610465919061246c565b60405180910390f35b34801561047a57600080fd5b50610483611038565b604051610490919061246c565b60405180910390f35b3480156104a557600080fd5b506104ae61103e565b6040516104bb91906123d6565b60405180910390f35b3480156104d057600080fd5b506104d9611068565b6040516104e6919061246c565b60405180910390f35b3480156104fb57600080fd5b5061050461106e565b6040516105119190612310565b60405180910390f35b34801561052657600080fd5b50610541600480360381019061053c91906124da565b611100565b60405161054e919061246c565b60405180910390f35b34801561056357600080fd5b5061057e60048036038101906105799190612613565b611118565b005b34801561058c57600080fd5b506105a760048036038101906105a29190612788565b61112e565b005b3480156105b557600080fd5b506105d060048036038101906105cb9190612368565b611190565b6040516105dd9190612310565b60405180910390f35b3480156105f257600080fd5b506105fb611246565b604051610608919061246c565b60405180910390f35b34801561061d57600080fd5b506106386004803603810190610633919061280b565b61124c565b604051610645919061225c565b60405180910390f35b34801561065a57600080fd5b50610675600480360381019061067091906124da565b6112e0565b005b60007f80ac58cd000000000000000000000000000000000000000000000000000000007bffffffffffffffffffffffffffffffffffffffffffffffffffffffff1916827bffffffffffffffffffffffffffffffffffffffffffffffffffffffff1916148061074257507f5b5e139f000000000000000000000000000000000000000000000000000000007bffffffffffffffffffffffffffffffffffffffffffffffffffffffff1916827bffffffffffffffffffffffffffffffffffffffffffffffffffffffff1916145b80610752575061075182611363565b5b9050919050565b6060600080546107689061287a565b80601f01602080910402602001604051908101604052809291908181526020018280546107949061287a565b80156107e15780601f106107b6576101008083540402835291602001916107e1565b820191906000526020600020905b8154815290600101906020018083116107c457829003601f168201915b5050505050905090565b60006107f6826113cd565b6004600083815260200190815260200160002060009054906101000a900473ffffffffffffffffffffffffffffffffffffffff169050919050565b600061083c82610e75565b90508073ffffffffffffffffffffffffffffffffffffffff168373ffffffffffffffffffffffffffffffffffffffff16036108ac576040517f08c379a00000000000000000000000000000000000000000000000000000000081526004016108a39061291d565b60405180910390fd5b8073ffffffffffffffffffffffffffffffffffffffff166108cb611418565b73ffffffffffffffffffffffffffffffffffffffff1614806108fa57506108f9816108f4611418565b61124c565b5b610939576040517f08c379a0000000000000000000000000000000000000000000000000000000008152600401610930906129af565b60405180910390fd5b6109438383611420565b505050565b600061095460076114d9565b905090565b61096a610964611418565b826114e7565b6109a9576040517f08c379a00000000000000000000000000000000000000000000000000000000081526004016109a090612a41565b60405180910390fd5b6109b483838361157c565b505050565b806000811180156109cc5750600c548111155b610a0b576040517f08c379a0000000000000000000000000000000000000000000000000000000008152600401610a0290612aad565b60405180910390fd5b600b5481610a1960076114d9565b610a239190612afc565b1115610a64576040517f08c379a0000000000000000000000000000000000000000000000000000000008152600401610a5b90612b9e565b60405180910390fd5b81600a54610a729190612bbe565b341015610ab4576040517f08c379a0000000000000000000000000000000000000000000000000000000008152600401610aab90612c64565b60405180910390fd5b600d5482600e60003373ffffffffffffffffffffffffffffffffffffffff1673ffffffffffffffffffffffffffffffffffffffff16815260200190815260200160002054610b029190612afc565b1115610b43576040517f08c379a0000000000000000000000000000000000000000000000000000000008152600401610b3a90612cd0565b60405180910390fd5b610b4d33836117e2565b81600e60003373ffffffffffffffffffffffffffffffffffffffff1673ffffffffffffffffffffffffffffffffffffffff1681526020019081526020016000206000828254610b9c9190612afc565b925050819055505050565b610baf611822565b6000610bb961103e565b73ffffffffffffffffffffffffffffffffffffffff1647604051610bdc90612d21565b60006040518083038185875af1925050503d8060008114610c19576040519150601f19603f3d011682016040523d82523d6000602084013e610c1e565b606091505b5050905080610c2c57600080fd5b50565b610c4a8383836040518060200160405280600081525061112e565b505050565b60606000610c5c83610f26565b905060008167ffffffffffffffff811115610c7a57610c7961265d565b5b604051908082528060200260200182016040528015610ca85781602001602082028036833780820191505090505b50905060006001905060005b8381108015610cc55750600b548211155b15610d4d576000610cd583610e75565b90508673ffffffffffffffffffffffffffffffffffffffff168173ffffffffffffffffffffffffffffffffffffffff1603610d395782848381518110610d1e57610d1d612d36565b5b6020026020010181815250508180610d3590612d65565b9250505b8280610d4490612d65565b93505050610cb4565b82945050505050919050565b60098054610d669061287a565b80601f0160208091040260200160405190810160405280929190818152602001828054610d929061287a565b8015610ddf5780601f10610db457610100808354040283529160200191610ddf565b820191906000526020600020905b815481529060010190602001808311610dc257829003601f168201915b505050505081565b60088054610df49061287a565b80601f0160208091040260200160405190810160405280929190818152602001828054610e209061287a565b8015610e6d5780601f10610e4257610100808354040283529160200191610e6d565b820191906000526020600020905b815481529060010190602001808311610e5057829003601f168201915b505050505081565b6000806002600084815260200190815260200160002060009054906101000a900473ffffffffffffffffffffffffffffffffffffffff169050600073ffffffffffffffffffffffffffffffffffffffff168173ffffffffffffffffffffffffffffffffffffffff1603610f1d576040517f08c379a0000000000000000000000000000000000000000000000000000000008152600401610f1490612df9565b60405180910390fd5b80915050919050565b60008073ffffffffffffffffffffffffffffffffffffffff168273ffffffffffffffffffffffffffffffffffffffff1603610f96576040517f08c379a0000000000000000000000000000000000000000000000000000000008152600401610f8d90612e8b565b60405180910390fd5b600360008373ffffffffffffffffffffffffffffffffffffffff1673ffffffffffffffffffffffffffffffffffffffff168152602001908152602001600020549050919050565b610fe5611822565b610fef60006118a0565b565b6000600e60003373ffffffffffffffffffffffffffffffffffffffff1673ffffffffffffffffffffffffffffffffffffffff16815260200190815260200160002054905090565b600a5481565b6000600660009054906101000a900473ffffffffffffffffffffffffffffffffffffffff16905090565b600c5481565b60606001805461107d9061287a565b80601f01602080910402602001604051908101604052809291908181526020018280546110a99061287a565b80156110f65780601f106110cb576101008083540402835291602001916110f6565b820191906000526020600020905b8154815290600101906020018083116110d957829003601f168201915b5050505050905090565b600e6020528060005260406000206000915090505481565b61112a611123611418565b8383611966565b5050565b61113f611139611418565b836114e7565b61117e576040517f08c379a000000000000000000000000000000000000000000000000000000000815260040161117590612a41565b60405180910390fd5b61118a84848484611ad2565b50505050565b606061119b82611b2e565b6111da576040517f08c379a00000000000000000000000000000000000000000000000000000000081526004016111d190612f1d565b60405180910390fd5b60006111e4611b9a565b90506000815111611204576040518060200160405280600081525061123e565b8061121a6001856112159190612f3d565b611c2c565b600960405160200161122e93929190613041565b6040516020818303038152906040525b915050919050565b600b5481565b6000600560008473ffffffffffffffffffffffffffffffffffffffff1673ffffffffffffffffffffffffffffffffffffffff16815260200190815260200160002060008373ffffffffffffffffffffffffffffffffffffffff1673ffffffffffffffffffffffffffffffffffffffff16815260200190815260200160002060009054906101000a900460ff16905092915050565b6112e8611822565b600073ffffffffffffffffffffffffffffffffffffffff168173ffffffffffffffffffffffffffffffffffffffff1603611357576040517f08c379a000000000000000000000000000000000000000000000000000000000815260040161134e906130e4565b60405180910390fd5b611360816118a0565b50565b60007f01ffc9a7000000000000000000000000000000000000000000000000000000007bffffffffffffffffffffffffffffffffffffffffffffffffffffffff1916827bffffffffffffffffffffffffffffffffffffffffffffffffffffffff1916149050919050565b6113d681611b2e565b611415576040517f08c379a000000000000000000000000000000000000000000000000000000000815260040161140c90612df9565b60405180910390fd5b50565b600033905090565b816004600083815260200190815260200160002060006101000a81548173ffffffffffffffffffffffffffffffffffffffff021916908373ffffffffffffffffffffffffffffffffffffffff160217905550808273ffffffffffffffffffffffffffffffffffffffff1661149383610e75565b73ffffffffffffffffffffffffffffffffffffffff167f8c5be1e5ebec7d5bd14f71427d1e84f3dd0314c0f7b2291e5b200ac8c7c3b92560405160405180910390a45050565b600081600001549050919050565b6000806114f383610e75565b90508073ffffffffffffffffffffffffffffffffffffffff168473ffffffffffffffffffffffffffffffffffffffff1614806115355750611534818561124c565b5b8061157357508373ffffffffffffffffffffffffffffffffffffffff1661155b846107eb565b73ffffffffffffffffffffffffffffffffffffffff16145b91505092915050565b8273ffffffffffffffffffffffffffffffffffffffff1661159c82610e75565b73ffffffffffffffffffffffffffffffffffffffff16146115f2576040517f08c379a00000000000000000000000000000000000000000000000000000000081526004016115e990613176565b60405180910390fd5b600073ffffffffffffffffffffffffffffffffffffffff168273ffffffffffffffffffffffffffffffffffffffff1603611661576040517f08c379a000000000000000000000000000000000000000000000000000000000815260040161165890613208565b60405180910390fd5b61166c838383611d8c565b611677600082611420565b6001600360008573ffffffffffffffffffffffffffffffffffffffff1673ffffffffffffffffffffffffffffffffffffffff16815260200190815260200160002060008282546116c79190612f3d565b925050819055506001600360008473ffffffffffffffffffffffffffffffffffffffff1673ffffffffffffffffffffffffffffffffffffffff168152602001908152602001600020600082825461171e9190612afc565b92505081905550816002600083815260200190815260200160002060006101000a81548173ffffffffffffffffffffffffffffffffffffffff021916908373ffffffffffffffffffffffffffffffffffffffff160217905550808273ffffffffffffffffffffffffffffffffffffffff168473ffffffffffffffffffffffffffffffffffffffff167fddf252ad1be2c89b69c2b068fc378daa952ba7f163c4a11628f55a4df523b3ef60405160405180910390a46117dd838383611d91565b505050565b60005b8181101561181d57611800836117fb60076114d9565b611d96565b61180a6007611db4565b808061181590612d65565b9150506117e5565b505050565b61182a611418565b73ffffffffffffffffffffffffffffffffffffffff1661184861103e565b73ffffffffffffffffffffffffffffffffffffffff161461189e576040517f08c379a000000000000000000000000000000000000000000000000000000000815260040161189590613274565b60405180910390fd5b565b6000600660009054906101000a900473ffffffffffffffffffffffffffffffffffffffff16905081600660006101000a81548173ffffffffffffffffffffffffffffffffffffffff021916908373ffffffffffffffffffffffffffffffffffffffff1602179055508173ffffffffffffffffffffffffffffffffffffffff168173ffffffffffffffffffffffffffffffffffffffff167f8be0079c531659141344cd1fd0a4f28419497f9722a3daafe3b4186f6b6457e060405160405180910390a35050565b8173ffffffffffffffffffffffffffffffffffffffff168373ffffffffffffffffffffffffffffffffffffffff16036119d4576040517f08c379a00000000000000000000000000000000000000000000000000000000081526004016119cb906132e0565b60405180910390fd5b80600560008573ffffffffffffffffffffffffffffffffffffffff1673ffffffffffffffffffffffffffffffffffffffff16815260200190815260200160002060008473ffffffffffffffffffffffffffffffffffffffff1673ffffffffffffffffffffffffffffffffffffffff16815260200190815260200160002060006101000a81548160ff0219169083151502179055508173ffffffffffffffffffffffffffffffffffffffff168373ffffffffffffffffffffffffffffffffffffffff167f17307eab39ab6107e8899845ad3d59bd9653f200f220920489ca2b5937696c3183604051611ac5919061225c565b60405180910390a3505050565b611add84848461157c565b611ae984848484611dca565b611b28576040517f08c379a0000000000000000000000000000000000000000000000000000000008152600401611b1f90613372565b60405180910390fd5b50505050565b60008073ffffffffffffffffffffffffffffffffffffffff166002600084815260200190815260200160002060009054906101000a900473ffffffffffffffffffffffffffffffffffffffff1673ffffffffffffffffffffffffffffffffffffffff1614159050919050565b606060088054611ba99061287a565b80601f0160208091040260200160405190810160405280929190818152602001828054611bd59061287a565b8015611c225780601f10611bf757610100808354040283529160200191611c22565b820191906000526020600020905b815481529060010190602001808311611c0557829003601f168201915b5050505050905090565b606060008203611c73576040518060400160405280600181526020017f30000000000000000000000000000000000000000000000000000000000000008152509050611d87565b600082905060005b60008214611ca5578080611c8e90612d65565b915050600a82611c9e91906133c1565b9150611c7b565b60008167ffffffffffffffff811115611cc157611cc061265d565b5b6040519080825280601f01601f191660200182016040528015611cf35781602001600182028036833780820191505090505b5090505b60008514611d8057600182611d0c9190612f3d565b9150600a85611d1b91906133f2565b6030611d279190612afc565b60f81b818381518110611d3d57611d3c612d36565b5b60200101907effffffffffffffffffffffffffffffffffffffffffffffffffffffffffffff1916908160001a905350600a85611d7991906133c1565b9450611cf7565b8093505050505b919050565b505050565b505050565b611db0828260405180602001604052806000815250611f51565b5050565b6001816000016000828254019250508190555050565b6000611deb8473ffffffffffffffffffffffffffffffffffffffff16611fac565b15611f44578373ffffffffffffffffffffffffffffffffffffffff1663150b7a02611e14611418565b8786866040518563ffffffff1660e01b8152600401611e369493929190613478565b6020604051808303816000875af1925050508015611e7257506040513d601f19601f82011682018060405250810190611e6f91906134d9565b60015b611ef4573d8060008114611ea2576040519150601f19603f3d011682016040523d82523d6000602084013e611ea7565b606091505b506000815103611eec576040517f08c379a0000000000000000000000000000000000000000000000000000000008152600401611ee390613372565b60405180910390fd5b805181602001fd5b63150b7a0260e01b7bffffffffffffffffffffffffffffffffffffffffffffffffffffffff1916817bffffffffffffffffffffffffffffffffffffffffffffffffffffffff191614915050611f49565b600190505b949350505050565b611f5b8383611fcf565b611f686000848484611dca565b611fa7576040517f08c379a0000000000000000000000000000000000000000000000000000000008152600401611f9e90613372565b60405180910390fd5b505050565b6000808273ffffffffffffffffffffffffffffffffffffffff163b119050919050565b600073ffffffffffffffffffffffffffffffffffffffff168273ffffffffffffffffffffffffffffffffffffffff160361203e576040517f08c379a000000000000000000000000000000000000000000000000000000000815260040161203590613552565b60405180910390fd5b61204781611b2e565b15612087576040517f08c379a000000000000000000000000000000000000000000000000000000000815260040161207e906135be565b60405180910390fd5b61209360008383611d8c565b6001600360008473ffffffffffffffffffffffffffffffffffffffff1673ffffffffffffffffffffffffffffffffffffffff16815260200190815260200160002060008282546120e39190612afc565b92505081905550816002600083815260200190815260200160002060006101000a81548173ffffffffffffffffffffffffffffffffffffffff021916908373ffffffffffffffffffffffffffffffffffffffff160217905550808273ffffffffffffffffffffffffffffffffffffffff16600073ffffffffffffffffffffffffffffffffffffffff167fddf252ad1be2c89b69c2b068fc378daa952ba7f163c4a11628f55a4df523b3ef60405160405180910390a46121a460008383611d91565b5050565b6000604051905090565b600080fd5b600080fd5b60007fffffffff0000000000000000000000000000000000000000000000000000000082169050919050565b6121f1816121bc565b81146121fc57600080fd5b50565b60008135905061220e816121e8565b92915050565b60006020828403121561222a576122296121b2565b5b6000612238848285016121ff565b91505092915050565b60008115159050919050565b61225681612241565b82525050565b6000602082019050612271600083018461224d565b92915050565b600081519050919050565b600082825260208201905092915050565b60005b838110156122b1578082015181840152602081019050612296565b838111156122c0576000848401525b50505050565b6000601f19601f8301169050919050565b60006122e282612277565b6122ec8185612282565b93506122fc818560208601612293565b612305816122c6565b840191505092915050565b6000602082019050818103600083015261232a81846122d7565b905092915050565b6000819050919050565b61234581612332565b811461235057600080fd5b50565b6000813590506123628161233c565b92915050565b60006020828403121561237e5761237d6121b2565b5b600061238c84828501612353565b91505092915050565b600073ffffffffffffffffffffffffffffffffffffffff82169050919050565b60006123c082612395565b9050919050565b6123d0816123b5565b82525050565b60006020820190506123eb60008301846123c7565b92915050565b6123fa816123b5565b811461240557600080fd5b50565b600081359050612417816123f1565b92915050565b60008060408385031215612434576124336121b2565b5b600061244285828601612408565b925050602061245385828601612353565b9150509250929050565b61246681612332565b82525050565b6000602082019050612481600083018461245d565b92915050565b6000806000606084860312156124a05761249f6121b2565b5b60006124ae86828701612408565b93505060206124bf86828701612408565b92505060406124d086828701612353565b9150509250925092565b6000602082840312156124f0576124ef6121b2565b5b60006124fe84828501612408565b91505092915050565b600081519050919050565b600082825260208201905092915050565b6000819050602082019050919050565b61253c81612332565b82525050565b600061254e8383612533565b60208301905092915050565b6000602082019050919050565b600061257282612507565b61257c8185612512565b935061258783612523565b8060005b838110156125b857815161259f8882612542565b97506125aa8361255a565b92505060018101905061258b565b5085935050505092915050565b600060208201905081810360008301526125df8184612567565b905092915050565b6125f081612241565b81146125fb57600080fd5b50565b60008135905061260d816125e7565b92915050565b6000806040838503121561262a576126296121b2565b5b600061263885828601612408565b9250506020612649858286016125fe565b9150509250929050565b600080fd5b600080fd5b7f4e487b7100000000000000000000000000000000000000000000000000000000600052604160045260246000fd5b612695826122c6565b810181811067ffffffffffffffff821117156126b4576126b361265d565b5b80604052505050565b60006126c76121a8565b90506126d3828261268c565b919050565b600067ffffffffffffffff8211156126f3576126f261265d565b5b6126fc826122c6565b9050602081019050919050565b82818337600083830152505050565b600061272b612726846126d8565b6126bd565b90508281526020810184848401111561274757612746612658565b5b612752848285612709565b509392505050565b600082601f83011261276f5761276e612653565b5b813561277f848260208601612718565b91505092915050565b600080600080608085870312156127a2576127a16121b2565b5b60006127b087828801612408565b94505060206127c187828801612408565b93505060406127d287828801612353565b925050606085013567ffffffffffffffff8111156127f3576127f26121b7565b5b6127ff8782880161275a565b91505092959194509250565b60008060408385031215612822576128216121b2565b5b600061283085828601612408565b925050602061284185828601612408565b9150509250929050565b7f4e487b7100000000000000000000000000000000000000000000000000000000600052602260045260246000fd5b6000600282049050600182168061289257607f821691505b6020821081036128a5576128a461284b565b5b50919050565b7f4552433732313a20617070726f76616c20746f2063757272656e74206f776e6560008201527f7200000000000000000000000000000000000000000000000000000000000000602082015250565b6000612907602183612282565b9150612912826128ab565b604082019050919050565b60006020820190508181036000830152612936816128fa565b9050919050565b7f4552433732313a20617070726f76652063616c6c6572206973206e6f7420746f60008201527f6b656e206f776e6572206e6f7220617070726f76656420666f7220616c6c0000602082015250565b6000612999603e83612282565b91506129a48261293d565b604082019050919050565b600060208201905081810360008301526129c88161298c565b9050919050565b7f4552433732313a2063616c6c6572206973206e6f7420746f6b656e206f776e6560008201527f72206e6f7220617070726f766564000000000000000000000000000000000000602082015250565b6000612a2b602e83612282565b9150612a36826129cf565b604082019050919050565b60006020820190508181036000830152612a5a81612a1e565b9050919050565b7f496e76616c6964206d696e7420616d6f756e7421000000000000000000000000600082015250565b6000612a97601483612282565b9150612aa282612a61565b602082019050919050565b60006020820190508181036000830152612ac681612a8a565b9050919050565b7f4e487b7100000000000000000000000000000000000000000000000000000000600052601160045260246000fd5b6000612b0782612332565b9150612b1283612332565b9250827fffffffffffffffffffffffffffffffffffffffffffffffffffffffffffffffff03821115612b4757612b46612acd565b5b828201905092915050565b7f4d617820737570706c7920657863656564656421000000000000000000000000600082015250565b6000612b88601483612282565b9150612b9382612b52565b602082019050919050565b60006020820190508181036000830152612bb781612b7b565b9050919050565b6000612bc982612332565b9150612bd483612332565b9250817fffffffffffffffffffffffffffffffffffffffffffffffffffffffffffffffff0483118215151615612c0d57612c0c612acd565b5b828202905092915050565b7f496e73756666696369656e742066756e64732100000000000000000000000000600082015250565b6000612c4e601383612282565b9150612c5982612c18565b602082019050919050565b60006020820190508181036000830152612c7d81612c41565b9050919050565b7f7075626c6963206d696e74206c696d6974206578636565646564000000000000600082015250565b6000612cba601a83612282565b9150612cc582612c84565b602082019050919050565b60006020820190508181036000830152612ce981612cad565b9050919050565b600081905092915050565b50565b6000612d0b600083612cf0565b9150612d1682612cfb565b600082019050919050565b6000612d2c82612cfe565b9150819050919050565b7f4e487b7100000000000000000000000000000000000000000000000000000000600052603260045260246000fd5b6000612d7082612332565b91507fffffffffffffffffffffffffffffffffffffffffffffffffffffffffffffffff8203612da257612da1612acd565b5b600182019050919050565b7f4552433732313a20696e76616c696420746f6b656e2049440000000000000000600082015250565b6000612de3601883612282565b9150612dee82612dad565b602082019050919050565b60006020820190508181036000830152612e1281612dd6565b9050919050565b7f4552433732313a2061646472657373207a65726f206973206e6f74206120766160008201527f6c6964206f776e65720000000000000000000000000000000000000000000000602082015250565b6000612e75602983612282565b9150612e8082612e19565b604082019050919050565b60006020820190508181036000830152612ea481612e68565b9050919050565b7f4552433732314d657461646174613a2055524920717565727920666f72206e6f60008201527f6e6578697374656e7420746f6b656e0000000000000000000000000000000000602082015250565b6000612f07602f83612282565b9150612f1282612eab565b604082019050919050565b60006020820190508181036000830152612f3681612efa565b9050919050565b6000612f4882612332565b9150612f5383612332565b925082821015612f6657612f65612acd565b5b828203905092915050565b600081905092915050565b6000612f8782612277565b612f918185612f71565b9350612fa1818560208601612293565b80840191505092915050565b60008190508160005260206000209050919050565b60008154612fcf8161287a565b612fd98186612f71565b94506001821660008114612ff4576001811461300557613038565b60ff19831686528186019350613038565b61300e85612fad565b60005b8381101561303057815481890152600182019150602081019050613011565b838801955050505b50505092915050565b600061304d8286612f7c565b91506130598285612f7c565b91506130658284612fc2565b9150819050949350505050565b7f4f776e61626c653a206e6577206f776e657220697320746865207a65726f206160008201527f6464726573730000000000000000000000000000000000000000000000000000602082015250565b60006130ce602683612282565b91506130d982613072565b604082019050919050565b600060208201905081810360008301526130fd816130c1565b9050919050565b7f4552433732313a207472616e736665722066726f6d20696e636f72726563742060008201527f6f776e6572000000000000000000000000000000000000000000000000000000602082015250565b6000613160602583612282565b915061316b82613104565b604082019050919050565b6000602082019050818103600083015261318f81613153565b9050919050565b7f4552433732313a207472616e7366657220746f20746865207a65726f2061646460008201527f7265737300000000000000000000000000000000000000000000000000000000602082015250565b60006131f2602483612282565b91506131fd82613196565b604082019050919050565b60006020820190508181036000830152613221816131e5565b9050919050565b7f4f776e61626c653a2063616c6c6572206973206e6f7420746865206f776e6572600082015250565b600061325e602083612282565b915061326982613228565b602082019050919050565b6000602082019050818103600083015261328d81613251565b9050919050565b7f4552433732313a20617070726f766520746f2063616c6c657200000000000000600082015250565b60006132ca601983612282565b91506132d582613294565b602082019050919050565b600060208201905081810360008301526132f9816132bd565b9050919050565b7f4552433732313a207472616e7366657220746f206e6f6e20455243373231526560008201527f63656976657220696d706c656d656e7465720000000000000000000000000000602082015250565b600061335c603283612282565b915061336782613300565b604082019050919050565b6000602082019050818103600083015261338b8161334f565b9050919050565b7f4e487b7100000000000000000000000000000000000000000000000000000000600052601260045260246000fd5b60006133cc82612332565b91506133d783612332565b9250826133e7576133e6613392565b5b828204905092915050565b60006133fd82612332565b915061340883612332565b92508261341857613417613392565b5b828206905092915050565b600081519050919050565b600082825260208201905092915050565b600061344a82613423565b613454818561342e565b9350613464818560208601612293565b61346d816122c6565b840191505092915050565b600060808201905061348d60008301876123c7565b61349a60208301866123c7565b6134a7604083018561245d565b81810360608301526134b9818461343f565b905095945050505050565b6000815190506134d3816121e8565b92915050565b6000602082840312156134ef576134ee6121b2565b5b60006134fd848285016134c4565b91505092915050565b7f4552433732313a206d696e7420746f20746865207a65726f2061646472657373600082015250565b600061353c602083612282565b915061354782613506565b602082019050919050565b6000602082019050818103600083015261356b8161352f565b9050919050565b7f4552433732313a20746f6b656e20616c7265616479206d696e74656400000000600082015250565b60006135a8601c83612282565b91506135b382613572565b602082019050919050565b600060208201905081810360008301526135d78161359b565b905091905056fea26469706673582212207d2a3327129ad9155bbe64a325b0e6b77fb50d0185d7d3f75445fe20d7afb0ed64736f6c634300080e0033697066733a2f2f516d65536a53696e4870506e6d586d73704d6a776958794e367a533445397a63636172694752336a7863615774712f",
  "devdoc": {
    "kind": "dev",
    "methods": {
      "approve(address,uint256)": {
        "details": "See {IERC721-approve}."
      },
      "balanceOf(address)": {
        "details": "See {IERC721-balanceOf}."
      },
      "getApproved(uint256)": {
        "details": "See {IERC721-getApproved}."
      },
      "isApprovedForAll(address,address)": {
        "details": "See {IERC721-isApprovedForAll}."
      },
      "name()": {
        "details": "See {IERC721Metadata-name}."
      },
      "owner()": {
        "details": "Returns the address of the current owner."
      },
      "ownerOf(uint256)": {
        "details": "See {IERC721-ownerOf}."
      },
      "renounceOwnership()": {
        "details": "Leaves the contract without owner. It will not be possible to call `onlyOwner` functions anymore. Can only be called by the current owner. NOTE: Renouncing ownership will leave the contract without an owner, thereby removing any functionality that is only available to the owner."
      },
      "safeTransferFrom(address,address,uint256)": {
        "details": "See {IERC721-safeTransferFrom}."
      },
      "safeTransferFrom(address,address,uint256,bytes)": {
        "details": "See {IERC721-safeTransferFrom}."
      },
      "setApprovalForAll(address,bool)": {
        "details": "See {IERC721-setApprovalForAll}."
      },
      "supportsInterface(bytes4)": {
        "details": "See {IERC165-supportsInterface}."
      },
      "symbol()": {
        "details": "See {IERC721Metadata-symbol}."
      },
      "transferFrom(address,address,uint256)": {
        "details": "See {IERC721-transferFrom}."
      },
      "transferOwnership(address)": {
        "details": "Transfers ownership of the contract to a new account (`newOwner`). Can only be called by the current owner."
      }
    },
    "version": 1
  },
  "userdoc": {
    "kind": "user",
    "methods": {},
    "version": 1
  },
  "storageLayout": {
    "storage": [
      {
        "astId": 138,
        "contract": "contracts/BoredApeYachtClub.sol:BoredApeYachtClub",
        "label": "_name",
        "offset": 0,
        "slot": "0",
        "type": "t_string_storage"
      },
      {
        "astId": 140,
        "contract": "contracts/BoredApeYachtClub.sol:BoredApeYachtClub",
        "label": "_symbol",
        "offset": 0,
        "slot": "1",
        "type": "t_string_storage"
      },
      {
        "astId": 144,
        "contract": "contracts/BoredApeYachtClub.sol:BoredApeYachtClub",
        "label": "_owners",
        "offset": 0,
        "slot": "2",
        "type": "t_mapping(t_uint256,t_address)"
      },
      {
        "astId": 148,
        "contract": "contracts/BoredApeYachtClub.sol:BoredApeYachtClub",
        "label": "_balances",
        "offset": 0,
        "slot": "3",
        "type": "t_mapping(t_address,t_uint256)"
      },
      {
        "astId": 152,
        "contract": "contracts/BoredApeYachtClub.sol:BoredApeYachtClub",
        "label": "_tokenApprovals",
        "offset": 0,
        "slot": "4",
        "type": "t_mapping(t_uint256,t_address)"
      },
      {
        "astId": 158,
        "contract": "contracts/BoredApeYachtClub.sol:BoredApeYachtClub",
        "label": "_operatorApprovals",
        "offset": 0,
        "slot": "5",
        "type": "t_mapping(t_address,t_mapping(t_address,t_bool))"
      },
      {
        "astId": 7,
        "contract": "contracts/BoredApeYachtClub.sol:BoredApeYachtClub",
        "label": "_owner",
        "offset": 0,
        "slot": "6",
        "type": "t_address"
      },
      {
        "astId": 2152,
        "contract": "contracts/BoredApeYachtClub.sol:BoredApeYachtClub",
        "label": "supply",
        "offset": 0,
        "slot": "7",
        "type": "t_struct(Counter)1463_storage"
      },
      {
        "astId": 2155,
        "contract": "contracts/BoredApeYachtClub.sol:BoredApeYachtClub",
        "label": "uriPrefix",
        "offset": 0,
        "slot": "8",
        "type": "t_string_storage"
      },
      {
        "astId": 2158,
        "contract": "contracts/BoredApeYachtClub.sol:BoredApeYachtClub",
        "label": "uriSuffix",
        "offset": 0,
        "slot": "9",
        "type": "t_string_storage"
      },
      {
        "astId": 2161,
        "contract": "contracts/BoredApeYachtClub.sol:BoredApeYachtClub",
        "label": "publicMintCost",
        "offset": 0,
        "slot": "10",
        "type": "t_uint256"
      },
      {
        "astId": 2164,
        "contract": "contracts/BoredApeYachtClub.sol:BoredApeYachtClub",
        "label": "maxSupply",
        "offset": 0,
        "slot": "11",
        "type": "t_uint256"
      },
      {
        "astId": 2167,
        "contract": "contracts/BoredApeYachtClub.sol:BoredApeYachtClub",
        "label": "maxMintAmountPerTx",
        "offset": 0,
        "slot": "12",
        "type": "t_uint256"
      },
      {
        "astId": 2170,
        "contract": "contracts/BoredApeYachtClub.sol:BoredApeYachtClub",
        "label": "publicMintLimit",
        "offset": 0,
        "slot": "13",
        "type": "t_uint256"
      },
      {
        "astId": 2174,
        "contract": "contracts/BoredApeYachtClub.sol:BoredApeYachtClub",
        "label": "publicMintCount",
        "offset": 0,
        "slot": "14",
        "type": "t_mapping(t_address,t_uint256)"
      }
    ],
    "types": {
      "t_address": {
        "encoding": "inplace",
        "label": "address",
        "numberOfBytes": "20"
      },
      "t_bool": {
        "encoding": "inplace",
        "label": "bool",
        "numberOfBytes": "1"
      },
      "t_mapping(t_address,t_bool)": {
        "encoding": "mapping",
        "key": "t_address",
        "label": "mapping(address => bool)",
        "numberOfBytes": "32",
        "value": "t_bool"
      },
      "t_mapping(t_address,t_mapping(t_address,t_bool))": {
        "encoding": "mapping",
        "key": "t_address",
        "label": "mapping(address => mapping(address => bool))",
        "numberOfBytes": "32",
        "value": "t_mapping(t_address,t_bool)"
      },
      "t_mapping(t_address,t_uint256)": {
        "encoding": "mapping",
        "key": "t_address",
        "label": "mapping(address => uint256)",
        "numberOfBytes": "32",
        "value": "t_uint256"
      },
      "t_mapping(t_uint256,t_address)": {
        "encoding": "mapping",
        "key": "t_uint256",
        "label": "mapping(uint256 => address)",
        "numberOfBytes": "32",
        "value": "t_address"
      },
      "t_string_storage": {
        "encoding": "bytes",
        "label": "string",
        "numberOfBytes": "32"
      },
      "t_struct(Counter)1463_storage": {
        "encoding": "inplace",
        "label": "struct Counters.Counter",
        "members": [
          {
            "astId": 1462,
            "contract": "contracts/BoredApeYachtClub.sol:BoredApeYachtClub",
            "label": "_value",
            "offset": 0,
            "slot": "0",
            "type": "t_uint256"
          }
        ],
        "numberOfBytes": "32"
      },
      "t_uint256": {
        "encoding": "inplace",
        "label": "uint256",
        "numberOfBytes": "32"
      }
    }
  }
}