{
  "address": "0x6447F7d21f19af6c11824B06E3a6618542ceDF33",
  "abi": [
    {
      "inputs": [],
      "stateMutability": "nonpayable",
      "type": "constructor"
    },
    {
      "anonymous": false,
      "inputs": [
        {
          "indexed": true,
          "internalType": "address",
          "name": "owner",
          "type": "address"
        },
        {
          "indexed": true,
          "internalType": "address",
          "name": "approved",
          "type": "address"
        },
        {
          "indexed": true,
          "internalType": "uint256",
          "name": "tokenId",
          "type": "uint256"
        }
      ],
      "name": "Approval",
      "type": "event"
    },
    {
      "anonymous": false,
      "inputs": [
        {
          "indexed": true,
          "internalType": "address",
          "name": "owner",
          "type": "address"
        },
        {
          "indexed": true,
          "internalType": "address",
          "name": "operator",
          "type": "address"
        },
        {
          "indexed": false,
          "internalType": "bool",
          "name": "approved",
          "type": "bool"
        }
      ],
      "name": "ApprovalForAll",
      "type": "event"
    },
    {
      "anonymous": false,
      "inputs": [
        {
          "indexed": true,
          "internalType": "address",
          "name": "previousOwner",
          "type": "address"
        },
        {
          "indexed": true,
          "internalType": "address",
          "name": "newOwner",
          "type": "address"
        }
      ],
      "name": "OwnershipTransferred",
      "type": "event"
    },
    {
      "anonymous": false,
      "inputs": [
        {
          "indexed": true,
          "internalType": "address",
          "name": "from",
          "type": "address"
        },
        {
          "indexed": true,
          "internalType": "address",
          "name": "to",
          "type": "address"
        },
        {
          "indexed": true,
          "internalType": "uint256",
          "name": "tokenId",
          "type": "uint256"
        }
      ],
      "name": "Transfer",
      "type": "event"
    },
    {
      "anonymous": false,
      "inputs": [
        {
          "indexed": true,
          "internalType": "uint256",
          "name": "tokenId",
          "type": "uint256"
        },
        {
          "indexed": true,
          "internalType": "address",
          "name": "user",
          "type": "address"
        },
        {
          "indexed": false,
          "internalType": "uint64",
          "name": "expires",
          "type": "uint64"
        }
      ],
      "name": "UpdateUser",
      "type": "event"
    },
    {
      "inputs": [
        {
          "internalType": "address",
          "name": "to",
          "type": "address"
        },
        {
          "internalType": "uint256",
          "name": "tokenId",
          "type": "uint256"
        }
      ],
      "name": "approve",
      "outputs": [],
      "stateMutability": "nonpayable",
      "type": "function"
    },
    {
      "inputs": [
        {
          "internalType": "address",
          "name": "owner",
          "type": "address"
        }
      ],
      "name": "balanceOf",
      "outputs": [
        {
          "internalType": "uint256",
          "name": "",
          "type": "uint256"
        }
      ],
      "stateMutability": "view",
      "type": "function"
    },
    {
      "inputs": [
        {
          "internalType": "uint256",
          "name": "tokenId",
          "type": "uint256"
        }
      ],
      "name": "getApproved",
      "outputs": [
        {
          "internalType": "address",
          "name": "",
          "type": "address"
        }
      ],
      "stateMutability": "view",
      "type": "function"
    },
    {
      "inputs": [],
      "name": "getmintCount",
      "outputs": [
        {
          "internalType": "uint256",
          "name": "",
          "type": "uint256"
        }
      ],
      "stateMutability": "view",
      "type": "function"
    },
    {
      "inputs": [
        {
          "internalType": "address",
          "name": "owner",
          "type": "address"
        },
        {
          "internalType": "address",
          "name": "operator",
          "type": "address"
        }
      ],
      "name": "isApprovedForAll",
      "outputs": [
        {
          "internalType": "bool",
          "name": "",
          "type": "bool"
        }
      ],
      "stateMutability": "view",
      "type": "function"
    },
    {
      "inputs": [],
      "name": "maxMintAmountPerTx",
      "outputs": [
        {
          "internalType": "uint256",
          "name": "",
          "type": "uint256"
        }
      ],
      "stateMutability": "view",
      "type": "function"
    },
    {
      "inputs": [],
      "name": "maxSupply",
      "outputs": [
        {
          "internalType": "uint256",
          "name": "",
          "type": "uint256"
        }
      ],
      "stateMutability": "view",
      "type": "function"
    },
    {
      "inputs": [
        {
          "internalType": "uint256",
          "name": "_mintAmount",
          "type": "uint256"
        }
      ],
      "name": "mint",
      "outputs": [],
      "stateMutability": "payable",
      "type": "function"
    },
    {
      "inputs": [],
      "name": "mintCost",
      "outputs": [
        {
          "internalType": "uint256",
          "name": "",
          "type": "uint256"
        }
      ],
      "stateMutability": "view",
      "type": "function"
    },
    {
      "inputs": [
        {
          "internalType": "address",
          "name": "",
          "type": "address"
        }
      ],
      "name": "mintCount",
      "outputs": [
        {
          "internalType": "uint256",
          "name": "",
          "type": "uint256"
        }
      ],
      "stateMutability": "view",
      "type": "function"
    },
    {
      "inputs": [],
      "name": "name",
      "outputs": [
        {
          "internalType": "string",
          "name": "",
          "type": "string"
        }
      ],
      "stateMutability": "view",
      "type": "function"
    },
    {
      "inputs": [],
      "name": "owner",
      "outputs": [
        {
          "internalType": "address",
          "name": "",
          "type": "address"
        }
      ],
      "stateMutability": "view",
      "type": "function"
    },
    {
      "inputs": [
        {
          "internalType": "uint256",
          "name": "tokenId",
          "type": "uint256"
        }
      ],
      "name": "ownerOf",
      "outputs": [
        {
          "internalType": "address",
          "name": "",
          "type": "address"
        }
      ],
      "stateMutability": "view",
      "type": "function"
    },
    {
      "inputs": [],
      "name": "renounceOwnership",
      "outputs": [],
      "stateMutability": "nonpayable",
      "type": "function"
    },
    {
      "inputs": [
        {
          "internalType": "address",
          "name": "from",
          "type": "address"
        },
        {
          "internalType": "address",
          "name": "to",
          "type": "address"
        },
        {
          "internalType": "uint256",
          "name": "tokenId",
          "type": "uint256"
        }
      ],
      "name": "safeTransferFrom",
      "outputs": [],
      "stateMutability": "nonpayable",
      "type": "function"
    },
    {
      "inputs": [
        {
          "internalType": "address",
          "name": "from",
          "type": "address"
        },
        {
          "internalType": "address",
          "name": "to",
          "type": "address"
        },
        {
          "internalType": "uint256",
          "name": "tokenId",
          "type": "uint256"
        },
        {
          "internalType": "bytes",
          "name": "data",
          "type": "bytes"
        }
      ],
      "name": "safeTransferFrom",
      "outputs": [],
      "stateMutability": "nonpayable",
      "type": "function"
    },
    {
      "inputs": [
        {
          "internalType": "address",
          "name": "operator",
          "type": "address"
        },
        {
          "internalType": "bool",
          "name": "approved",
          "type": "bool"
        }
      ],
      "name": "setApprovalForAll",
      "outputs": [],
      "stateMutability": "nonpayable",
      "type": "function"
    },
    {
      "inputs": [
        {
          "internalType": "uint256",
          "name": "tokenId",
          "type": "uint256"
        },
        {
          "internalType": "address",
          "name": "user",
          "type": "address"
        },
        {
          "internalType": "uint64",
          "name": "expires",
          "type": "uint64"
        }
      ],
      "name": "setUser",
      "outputs": [],
      "stateMutability": "nonpayable",
      "type": "function"
    },
    {
      "inputs": [
        {
          "internalType": "bytes4",
          "name": "interfaceId",
          "type": "bytes4"
        }
      ],
      "name": "supportsInterface",
      "outputs": [
        {
          "internalType": "bool",
          "name": "",
          "type": "bool"
        }
      ],
      "stateMutability": "view",
      "type": "function"
    },
    {
      "inputs": [],
      "name": "symbol",
      "outputs": [
        {
          "internalType": "string",
          "name": "",
          "type": "string"
        }
      ],
      "stateMutability": "view",
      "type": "function"
    },
    {
      "inputs": [
        {
          "internalType": "uint256",
          "name": "_tokenId",
          "type": "uint256"
        }
      ],
      "name": "tokenURI",
      "outputs": [
        {
          "internalType": "string",
          "name": "",
          "type": "string"
        }
      ],
      "stateMutability": "view",
      "type": "function"
    },
    {
      "inputs": [],
      "name": "totalSupply",
      "outputs": [
        {
          "internalType": "uint256",
          "name": "",
          "type": "uint256"
        }
      ],
      "stateMutability": "view",
      "type": "function"
    },
    {
      "inputs": [
        {
          "internalType": "address",
          "name": "from",
          "type": "address"
        },
        {
          "internalType": "address",
          "name": "to",
          "type": "address"
        },
        {
          "internalType": "uint256",
          "name": "tokenId",
          "type": "uint256"
        }
      ],
      "name": "transferFrom",
      "outputs": [],
      "stateMutability": "nonpayable",
      "type": "function"
    },
    {
      "inputs": [
        {
          "internalType": "address",
          "name": "newOwner",
          "type": "address"
        }
      ],
      "name": "transferOwnership",
      "outputs": [],
      "stateMutability": "nonpayable",
      "type": "function"
    },
    {
      "inputs": [],
      "name": "uriPrefix",
      "outputs": [
        {
          "internalType": "string",
          "name": "",
          "type": "string"
        }
      ],
      "stateMutability": "view",
      "type": "function"
    },
    {
      "inputs": [],
      "name": "uriSuffix",
      "outputs": [
        {
          "internalType": "string",
          "name": "",
          "type": "string"
        }
      ],
      "stateMutability": "view",
      "type": "function"
    },
    {
      "inputs": [
        {
          "internalType": "uint256",
          "name": "tokenId",
          "type": "uint256"
        }
      ],
      "name": "userExpires",
      "outputs": [
        {
          "internalType": "uint256",
          "name": "",
          "type": "uint256"
        }
      ],
      "stateMutability": "view",
      "type": "function"
    },
    {
      "inputs": [
        {
          "internalType": "uint256",
          "name": "tokenId",
          "type": "uint256"
        }
      ],
      "name": "userOf",
      "outputs": [
        {
          "internalType": "address",
          "name": "",
          "type": "address"
        }
      ],
      "stateMutability": "view",
      "type": "function"
    },
    {
      "inputs": [
        {
          "internalType": "address",
          "name": "_owner",
          "type": "address"
        }
      ],
      "name": "walletOfOwner",
      "outputs": [
        {
          "internalType": "uint256[]",
          "name": "",
          "type": "uint256[]"
        }
      ],
      "stateMutability": "view",
      "type": "function"
    },
    {
      "inputs": [],
      "name": "withdraw",
      "outputs": [],
      "stateMutability": "nonpayable",
      "type": "function"
    }
  ],
  "transactionHash": "0x77fbee176dca83e1cba20694de8afa813818675e08e2a2764d1bd1197cd780f6",
  "args": [],
  "numDeployments": 1,
  "solcInputHash": "11e5d690a6cc71b2c5ba069432d29dac",
  "bytecode": "0x608060405260405180608001604052806051815260200162003fb260519139600990805190602001906200003592919062000245565b506040518060400160405280600581526020017f2e6a736f6e000000000000000000000000000000000000000000000000000000815250600a90805190602001906200008392919062000245565b50662386f26fc10000600b55612710600c556002600d556002600e55348015620000ac57600080fd5b506040518060400160405280600881526020017f334c616e646572730000000000000000000000000000000000000000000000008152506040518060400160405280600281526020017f334c000000000000000000000000000000000000000000000000000000000000815250818181600090805190602001906200013392919062000245565b5080600190805190602001906200014c92919062000245565b505050505062000171620001656200017760201b60201c565b6200017f60201b60201c565b62000359565b600033905090565b6000600760009054906101000a900473ffffffffffffffffffffffffffffffffffffffff16905081600760006101000a81548173ffffffffffffffffffffffffffffffffffffffff021916908373ffffffffffffffffffffffffffffffffffffffff1602179055508173ffffffffffffffffffffffffffffffffffffffff168173ffffffffffffffffffffffffffffffffffffffff167f8be0079c531659141344cd1fd0a4f28419497f9722a3daafe3b4186f6b6457e060405160405180910390a35050565b828054620002539062000324565b90600052602060002090601f016020900481019282620002775760008555620002c3565b82601f106200029257805160ff1916838001178555620002c3565b82800160010185558215620002c3579182015b82811115620002c2578251825591602001919060010190620002a5565b5b509050620002d29190620002d6565b5090565b5b80821115620002f1576000816000905550600101620002d7565b5090565b7f4e487b7100000000000000000000000000000000000000000000000000000000600052602260045260246000fd5b600060028204905060018216806200033d57607f821691505b602082108103620003535762000352620002f5565b5b50919050565b613c4980620003696000396000f3fe6080604052600436106101cd5760003560e01c80638da5cb5b116100f7578063bdb4b84811610095578063e030565e11610064578063e030565e1461067f578063e985e9c5146106a8578063ed9ec888146106e5578063f2fde38b14610722576101cd565b8063bdb4b848146105af578063c2f1f14a146105da578063c87b56dd14610617578063d5abeb0114610654576101cd565b806395d89b41116100d157806395d89b4114610516578063a0712d6814610541578063a22cb4651461055d578063b88d4fde14610586576101cd565b80638da5cb5b146104835780638fc88c48146104ae57806394354fd0146104eb576101cd565b806342842e0e1161016f57806362b99ad41161013e57806362b99ad4146103c75780636352211e146103f257806370a082311461042f578063715018a61461046c576101cd565b806342842e0e1461030b578063438b6300146103345780635503a0e8146103715780635619f4431461039c576101cd565b8063095ea7b3116101ab578063095ea7b31461027757806318160ddd146102a057806323b872dd146102cb5780633ccfd60b146102f4576101cd565b806301ffc9a7146101d257806306fdde031461020f578063081812fc1461023a575b600080fd5b3480156101de57600080fd5b506101f960048036038101906101f4919061269a565b61074b565b60405161020691906126e2565b60405180910390f35b34801561021b57600080fd5b506102246107c5565b6040516102319190612796565b60405180910390f35b34801561024657600080fd5b50610261600480360381019061025c91906127ee565b610857565b60405161026e919061285c565b60405180910390f35b34801561028357600080fd5b5061029e600480360381019061029991906128a3565b61089d565b005b3480156102ac57600080fd5b506102b56109b4565b6040516102c291906128f2565b60405180910390f35b3480156102d757600080fd5b506102f260048036038101906102ed919061290d565b6109c5565b005b34801561030057600080fd5b50610309610a25565b005b34801561031757600080fd5b50610332600480360381019061032d919061290d565b610aad565b005b34801561034057600080fd5b5061035b60048036038101906103569190612960565b610acd565b6040516103689190612a4b565b60405180910390f35b34801561037d57600080fd5b50610386610bd7565b6040516103939190612796565b60405180910390f35b3480156103a857600080fd5b506103b1610c65565b6040516103be91906128f2565b60405180910390f35b3480156103d357600080fd5b506103dc610cac565b6040516103e99190612796565b60405180910390f35b3480156103fe57600080fd5b50610419600480360381019061041491906127ee565b610d3a565b604051610426919061285c565b60405180910390f35b34801561043b57600080fd5b5061045660048036038101906104519190612960565b610deb565b60405161046391906128f2565b60405180910390f35b34801561047857600080fd5b50610481610ea2565b005b34801561048f57600080fd5b50610498610eb6565b6040516104a5919061285c565b60405180910390f35b3480156104ba57600080fd5b506104d560048036038101906104d091906127ee565b610ee0565b6040516104e291906128f2565b60405180910390f35b3480156104f757600080fd5b50610500610f1e565b60405161050d91906128f2565b60405180910390f35b34801561052257600080fd5b5061052b610f24565b6040516105389190612796565b60405180910390f35b61055b600480360381019061055691906127ee565b610fb6565b005b34801561056957600080fd5b50610584600480360381019061057f9190612a99565b6111a4565b005b34801561059257600080fd5b506105ad60048036038101906105a89190612c0e565b6111ba565b005b3480156105bb57600080fd5b506105c461121c565b6040516105d191906128f2565b60405180910390f35b3480156105e657600080fd5b5061060160048036038101906105fc91906127ee565b611222565b60405161060e919061285c565b60405180910390f35b34801561062357600080fd5b5061063e600480360381019061063991906127ee565b6112a7565b60405161064b9190612796565b60405180910390f35b34801561066057600080fd5b50610669611351565b60405161067691906128f2565b60405180910390f35b34801561068b57600080fd5b506106a660048036038101906106a19190612cd1565b611357565b005b3480156106b457600080fd5b506106cf60048036038101906106ca9190612d24565b61147a565b6040516106dc91906126e2565b60405180910390f35b3480156106f157600080fd5b5061070c60048036038101906107079190612960565b61150e565b60405161071991906128f2565b60405180910390f35b34801561072e57600080fd5b5061074960048036038101906107449190612960565b611526565b005b60007fad092b5c000000000000000000000000000000000000000000000000000000007bffffffffffffffffffffffffffffffffffffffffffffffffffffffff1916827bffffffffffffffffffffffffffffffffffffffffffffffffffffffff191614806107be57506107bd826115a9565b5b9050919050565b6060600080546107d490612d93565b80601f016020809104026020016040519081016040528092919081815260200182805461080090612d93565b801561084d5780601f106108225761010080835404028352916020019161084d565b820191906000526020600020905b81548152906001019060200180831161083057829003601f168201915b5050505050905090565b60006108628261168b565b6004600083815260200190815260200160002060009054906101000a900473ffffffffffffffffffffffffffffffffffffffff169050919050565b60006108a882610d3a565b90508073ffffffffffffffffffffffffffffffffffffffff168373ffffffffffffffffffffffffffffffffffffffff1603610918576040517f08c379a000000000000000000000000000000000000000000000000000000000815260040161090f90612e36565b60405180910390fd5b8073ffffffffffffffffffffffffffffffffffffffff166109376116d6565b73ffffffffffffffffffffffffffffffffffffffff1614806109665750610965816109606116d6565b61147a565b5b6109a5576040517f08c379a000000000000000000000000000000000000000000000000000000000815260040161099c90612ec8565b60405180910390fd5b6109af83836116de565b505050565b60006109c06008611797565b905090565b6109d66109d06116d6565b826117a5565b610a15576040517f08c379a0000000000000000000000000000000000000000000000000000000008152600401610a0c90612f5a565b60405180910390fd5b610a2083838361183a565b505050565b610a2d611aa0565b6000610a37610eb6565b73ffffffffffffffffffffffffffffffffffffffff1647604051610a5a90612fab565b60006040518083038185875af1925050503d8060008114610a97576040519150601f19603f3d011682016040523d82523d6000602084013e610a9c565b606091505b5050905080610aaa57600080fd5b50565b610ac8838383604051806020016040528060008152506111ba565b505050565b60606000610ada83610deb565b905060008167ffffffffffffffff811115610af857610af7612ae3565b5b604051908082528060200260200182016040528015610b265781602001602082028036833780820191505090505b50905060006001905060005b8381108015610b435750600c548211155b15610bcb576000610b5383610d3a565b90508673ffffffffffffffffffffffffffffffffffffffff168173ffffffffffffffffffffffffffffffffffffffff1603610bb75782848381518110610b9c57610b9b612fc0565b5b6020026020010181815250508180610bb39061301e565b9250505b8280610bc29061301e565b93505050610b32565b82945050505050919050565b600a8054610be490612d93565b80601f0160208091040260200160405190810160405280929190818152602001828054610c1090612d93565b8015610c5d5780601f10610c3257610100808354040283529160200191610c5d565b820191906000526020600020905b815481529060010190602001808311610c4057829003601f168201915b505050505081565b6000600f60003373ffffffffffffffffffffffffffffffffffffffff1673ffffffffffffffffffffffffffffffffffffffff16815260200190815260200160002054905090565b60098054610cb990612d93565b80601f0160208091040260200160405190810160405280929190818152602001828054610ce590612d93565b8015610d325780601f10610d0757610100808354040283529160200191610d32565b820191906000526020600020905b815481529060010190602001808311610d1557829003601f168201915b505050505081565b6000806002600084815260200190815260200160002060009054906101000a900473ffffffffffffffffffffffffffffffffffffffff169050600073ffffffffffffffffffffffffffffffffffffffff168173ffffffffffffffffffffffffffffffffffffffff1603610de2576040517f08c379a0000000000000000000000000000000000000000000000000000000008152600401610dd9906130b2565b60405180910390fd5b80915050919050565b60008073ffffffffffffffffffffffffffffffffffffffff168273ffffffffffffffffffffffffffffffffffffffff1603610e5b576040517f08c379a0000000000000000000000000000000000000000000000000000000008152600401610e5290613144565b60405180910390fd5b600360008373ffffffffffffffffffffffffffffffffffffffff1673ffffffffffffffffffffffffffffffffffffffff168152602001908152602001600020549050919050565b610eaa611aa0565b610eb46000611b1e565b565b6000600760009054906101000a900473ffffffffffffffffffffffffffffffffffffffff16905090565b60006006600083815260200190815260200160002060000160149054906101000a900467ffffffffffffffff1667ffffffffffffffff169050919050565b600d5481565b606060018054610f3390612d93565b80601f0160208091040260200160405190810160405280929190818152602001828054610f5f90612d93565b8015610fac5780601f10610f8157610100808354040283529160200191610fac565b820191906000526020600020905b815481529060010190602001808311610f8f57829003601f168201915b5050505050905090565b80600081118015610fc95750600d548111155b611008576040517f08c379a0000000000000000000000000000000000000000000000000000000008152600401610fff906131b0565b60405180910390fd5b600c54816110166008611797565b61102091906131d0565b1115611061576040517f08c379a000000000000000000000000000000000000000000000000000000000815260040161105890613272565b60405180910390fd5b81600b5461106f9190613292565b3410156110b1576040517f08c379a00000000000000000000000000000000000000000000000000000000081526004016110a890613338565b60405180910390fd5b600e5482600f60003373ffffffffffffffffffffffffffffffffffffffff1673ffffffffffffffffffffffffffffffffffffffff168152602001908152602001600020546110ff91906131d0565b1115611140576040517f08c379a0000000000000000000000000000000000000000000000000000000008152600401611137906133a4565b60405180910390fd5b61114a3383611be4565b81600f60003373ffffffffffffffffffffffffffffffffffffffff1673ffffffffffffffffffffffffffffffffffffffff168152602001908152602001600020600082825461119991906131d0565b925050819055505050565b6111b66111af6116d6565b8383611c24565b5050565b6111cb6111c56116d6565b836117a5565b61120a576040517f08c379a000000000000000000000000000000000000000000000000000000000815260040161120190612f5a565b60405180910390fd5b61121684848484611d90565b50505050565b600b5481565b6000426006600084815260200190815260200160002060000160149054906101000a900467ffffffffffffffff1667ffffffffffffffff161061129d576006600083815260200190815260200160002060000160009054906101000a900473ffffffffffffffffffffffffffffffffffffffff1690506112a2565b600090505b919050565b60606112b282611dec565b6112f1576040517f08c379a00000000000000000000000000000000000000000000000000000000081526004016112e890613436565b60405180910390fd5b60006112fb611e58565b9050600081511161131b5760405180602001604052806000815250611349565b8061132584611eea565b600a60405160200161133993929190613526565b6040516020818303038152906040525b915050919050565b600c5481565b61136133846117a5565b6113a0576040517f08c379a0000000000000000000000000000000000000000000000000000000008152600401611397906135c9565b60405180910390fd5b6000600660008581526020019081526020016000209050828160000160006101000a81548173ffffffffffffffffffffffffffffffffffffffff021916908373ffffffffffffffffffffffffffffffffffffffff160217905550818160000160146101000a81548167ffffffffffffffff021916908367ffffffffffffffff1602179055508273ffffffffffffffffffffffffffffffffffffffff16847f4e06b4e7000e659094299b3533b47b6aa8ad048e95e872d23d1f4ee55af89cfe8460405161146c91906135f8565b60405180910390a350505050565b6000600560008473ffffffffffffffffffffffffffffffffffffffff1673ffffffffffffffffffffffffffffffffffffffff16815260200190815260200160002060008373ffffffffffffffffffffffffffffffffffffffff1673ffffffffffffffffffffffffffffffffffffffff16815260200190815260200160002060009054906101000a900460ff16905092915050565b600f6020528060005260406000206000915090505481565b61152e611aa0565b600073ffffffffffffffffffffffffffffffffffffffff168173ffffffffffffffffffffffffffffffffffffffff160361159d576040517f08c379a000000000000000000000000000000000000000000000000000000000815260040161159490613685565b60405180910390fd5b6115a681611b1e565b50565b60007f80ac58cd000000000000000000000000000000000000000000000000000000007bffffffffffffffffffffffffffffffffffffffffffffffffffffffff1916827bffffffffffffffffffffffffffffffffffffffffffffffffffffffff1916148061167457507f5b5e139f000000000000000000000000000000000000000000000000000000007bffffffffffffffffffffffffffffffffffffffffffffffffffffffff1916827bffffffffffffffffffffffffffffffffffffffffffffffffffffffff1916145b8061168457506116838261204a565b5b9050919050565b61169481611dec565b6116d3576040517f08c379a00000000000000000000000000000000000000000000000000000000081526004016116ca906130b2565b60405180910390fd5b50565b600033905090565b816004600083815260200190815260200160002060006101000a81548173ffffffffffffffffffffffffffffffffffffffff021916908373ffffffffffffffffffffffffffffffffffffffff160217905550808273ffffffffffffffffffffffffffffffffffffffff1661175183610d3a565b73ffffffffffffffffffffffffffffffffffffffff167f8c5be1e5ebec7d5bd14f71427d1e84f3dd0314c0f7b2291e5b200ac8c7c3b92560405160405180910390a45050565b600081600001549050919050565b6000806117b183610d3a565b90508073ffffffffffffffffffffffffffffffffffffffff168473ffffffffffffffffffffffffffffffffffffffff1614806117f357506117f2818561147a565b5b8061183157508373ffffffffffffffffffffffffffffffffffffffff1661181984610857565b73ffffffffffffffffffffffffffffffffffffffff16145b91505092915050565b8273ffffffffffffffffffffffffffffffffffffffff1661185a82610d3a565b73ffffffffffffffffffffffffffffffffffffffff16146118b0576040517f08c379a00000000000000000000000000000000000000000000000000000000081526004016118a790613717565b60405180910390fd5b600073ffffffffffffffffffffffffffffffffffffffff168273ffffffffffffffffffffffffffffffffffffffff160361191f576040517f08c379a0000000000000000000000000000000000000000000000000000000008152600401611916906137a9565b60405180910390fd5b61192a8383836120b4565b6119356000826116de565b6001600360008573ffffffffffffffffffffffffffffffffffffffff1673ffffffffffffffffffffffffffffffffffffffff168152602001908152602001600020600082825461198591906137c9565b925050819055506001600360008473ffffffffffffffffffffffffffffffffffffffff1673ffffffffffffffffffffffffffffffffffffffff16815260200190815260200160002060008282546119dc91906131d0565b92505081905550816002600083815260200190815260200160002060006101000a81548173ffffffffffffffffffffffffffffffffffffffff021916908373ffffffffffffffffffffffffffffffffffffffff160217905550808273ffffffffffffffffffffffffffffffffffffffff168473ffffffffffffffffffffffffffffffffffffffff167fddf252ad1be2c89b69c2b068fc378daa952ba7f163c4a11628f55a4df523b3ef60405160405180910390a4611a9b838383612212565b505050565b611aa86116d6565b73ffffffffffffffffffffffffffffffffffffffff16611ac6610eb6565b73ffffffffffffffffffffffffffffffffffffffff1614611b1c576040517f08c379a0000000000000000000000000000000000000000000000000000000008152600401611b1390613849565b60405180910390fd5b565b6000600760009054906101000a900473ffffffffffffffffffffffffffffffffffffffff16905081600760006101000a81548173ffffffffffffffffffffffffffffffffffffffff021916908373ffffffffffffffffffffffffffffffffffffffff1602179055508173ffffffffffffffffffffffffffffffffffffffff168173ffffffffffffffffffffffffffffffffffffffff167f8be0079c531659141344cd1fd0a4f28419497f9722a3daafe3b4186f6b6457e060405160405180910390a35050565b60005b81811015611c1f57611bf96008612217565b611c0c83611c076008611797565b61222d565b8080611c179061301e565b915050611be7565b505050565b8173ffffffffffffffffffffffffffffffffffffffff168373ffffffffffffffffffffffffffffffffffffffff1603611c92576040517f08c379a0000000000000000000000000000000000000000000000000000000008152600401611c89906138b5565b60405180910390fd5b80600560008573ffffffffffffffffffffffffffffffffffffffff1673ffffffffffffffffffffffffffffffffffffffff16815260200190815260200160002060008473ffffffffffffffffffffffffffffffffffffffff1673ffffffffffffffffffffffffffffffffffffffff16815260200190815260200160002060006101000a81548160ff0219169083151502179055508173ffffffffffffffffffffffffffffffffffffffff168373ffffffffffffffffffffffffffffffffffffffff167f17307eab39ab6107e8899845ad3d59bd9653f200f220920489ca2b5937696c3183604051611d8391906126e2565b60405180910390a3505050565b611d9b84848461183a565b611da78484848461224b565b611de6576040517f08c379a0000000000000000000000000000000000000000000000000000000008152600401611ddd90613947565b60405180910390fd5b50505050565b60008073ffffffffffffffffffffffffffffffffffffffff166002600084815260200190815260200160002060009054906101000a900473ffffffffffffffffffffffffffffffffffffffff1673ffffffffffffffffffffffffffffffffffffffff1614159050919050565b606060098054611e6790612d93565b80601f0160208091040260200160405190810160405280929190818152602001828054611e9390612d93565b8015611ee05780601f10611eb557610100808354040283529160200191611ee0565b820191906000526020600020905b815481529060010190602001808311611ec357829003601f168201915b5050505050905090565b606060008203611f31576040518060400160405280600181526020017f30000000000000000000000000000000000000000000000000000000000000008152509050612045565b600082905060005b60008214611f63578080611f4c9061301e565b915050600a82611f5c9190613996565b9150611f39565b60008167ffffffffffffffff811115611f7f57611f7e612ae3565b5b6040519080825280601f01601f191660200182016040528015611fb15781602001600182028036833780820191505090505b5090505b6000851461203e57600182611fca91906137c9565b9150600a85611fd991906139c7565b6030611fe591906131d0565b60f81b818381518110611ffb57611ffa612fc0565b5b60200101907effffffffffffffffffffffffffffffffffffffffffffffffffffffffffffff1916908160001a905350600a856120379190613996565b9450611fb5565b8093505050505b919050565b60007f01ffc9a7000000000000000000000000000000000000000000000000000000007bffffffffffffffffffffffffffffffffffffffffffffffffffffffff1916827bffffffffffffffffffffffffffffffffffffffffffffffffffffffff1916149050919050565b6120bf8383836123d2565b8173ffffffffffffffffffffffffffffffffffffffff168373ffffffffffffffffffffffffffffffffffffffff161415801561215e5750600073ffffffffffffffffffffffffffffffffffffffff166006600083815260200190815260200160002060000160009054906101000a900473ffffffffffffffffffffffffffffffffffffffff1673ffffffffffffffffffffffffffffffffffffffff1614155b1561220d5760066000828152602001908152602001600020600080820160006101000a81549073ffffffffffffffffffffffffffffffffffffffff02191690556000820160146101000a81549067ffffffffffffffff02191690555050600073ffffffffffffffffffffffffffffffffffffffff16817f4e06b4e7000e659094299b3533b47b6aa8ad048e95e872d23d1f4ee55af89cfe60006040516122049190613a3d565b60405180910390a35b505050565b505050565b6001816000016000828254019250508190555050565b6122478282604051806020016040528060008152506123d7565b5050565b600061226c8473ffffffffffffffffffffffffffffffffffffffff16612432565b156123c5578373ffffffffffffffffffffffffffffffffffffffff1663150b7a026122956116d6565b8786866040518563ffffffff1660e01b81526004016122b79493929190613aad565b6020604051808303816000875af19250505080156122f357506040513d601f19601f820116820180604052508101906122f09190613b0e565b60015b612375573d8060008114612323576040519150601f19603f3d011682016040523d82523d6000602084013e612328565b606091505b50600081510361236d576040517f08c379a000000000000000000000000000000000000000000000000000000000815260040161236490613947565b60405180910390fd5b805181602001fd5b63150b7a0260e01b7bffffffffffffffffffffffffffffffffffffffffffffffffffffffff1916817bffffffffffffffffffffffffffffffffffffffffffffffffffffffff1916149150506123ca565b600190505b949350505050565b505050565b6123e18383612455565b6123ee600084848461224b565b61242d576040517f08c379a000000000000000000000000000000000000000000000000000000000815260040161242490613947565b60405180910390fd5b505050565b6000808273ffffffffffffffffffffffffffffffffffffffff163b119050919050565b600073ffffffffffffffffffffffffffffffffffffffff168273ffffffffffffffffffffffffffffffffffffffff16036124c4576040517f08c379a00000000000000000000000000000000000000000000000000000000081526004016124bb90613b87565b60405180910390fd5b6124cd81611dec565b1561250d576040517f08c379a000000000000000000000000000000000000000000000000000000000815260040161250490613bf3565b60405180910390fd5b612519600083836120b4565b6001600360008473ffffffffffffffffffffffffffffffffffffffff1673ffffffffffffffffffffffffffffffffffffffff168152602001908152602001600020600082825461256991906131d0565b92505081905550816002600083815260200190815260200160002060006101000a81548173ffffffffffffffffffffffffffffffffffffffff021916908373ffffffffffffffffffffffffffffffffffffffff160217905550808273ffffffffffffffffffffffffffffffffffffffff16600073ffffffffffffffffffffffffffffffffffffffff167fddf252ad1be2c89b69c2b068fc378daa952ba7f163c4a11628f55a4df523b3ef60405160405180910390a461262a60008383612212565b5050565b6000604051905090565b600080fd5b600080fd5b60007fffffffff0000000000000000000000000000000000000000000000000000000082169050919050565b61267781612642565b811461268257600080fd5b50565b6000813590506126948161266e565b92915050565b6000602082840312156126b0576126af612638565b5b60006126be84828501612685565b91505092915050565b60008115159050919050565b6126dc816126c7565b82525050565b60006020820190506126f760008301846126d3565b92915050565b600081519050919050565b600082825260208201905092915050565b60005b8381101561273757808201518184015260208101905061271c565b83811115612746576000848401525b50505050565b6000601f19601f8301169050919050565b6000612768826126fd565b6127728185612708565b9350612782818560208601612719565b61278b8161274c565b840191505092915050565b600060208201905081810360008301526127b0818461275d565b905092915050565b6000819050919050565b6127cb816127b8565b81146127d657600080fd5b50565b6000813590506127e8816127c2565b92915050565b60006020828403121561280457612803612638565b5b6000612812848285016127d9565b91505092915050565b600073ffffffffffffffffffffffffffffffffffffffff82169050919050565b60006128468261281b565b9050919050565b6128568161283b565b82525050565b6000602082019050612871600083018461284d565b92915050565b6128808161283b565b811461288b57600080fd5b50565b60008135905061289d81612877565b92915050565b600080604083850312156128ba576128b9612638565b5b60006128c88582860161288e565b92505060206128d9858286016127d9565b9150509250929050565b6128ec816127b8565b82525050565b600060208201905061290760008301846128e3565b92915050565b60008060006060848603121561292657612925612638565b5b60006129348682870161288e565b93505060206129458682870161288e565b9250506040612956868287016127d9565b9150509250925092565b60006020828403121561297657612975612638565b5b60006129848482850161288e565b91505092915050565b600081519050919050565b600082825260208201905092915050565b6000819050602082019050919050565b6129c2816127b8565b82525050565b60006129d483836129b9565b60208301905092915050565b6000602082019050919050565b60006129f88261298d565b612a028185612998565b9350612a0d836129a9565b8060005b83811015612a3e578151612a2588826129c8565b9750612a30836129e0565b925050600181019050612a11565b5085935050505092915050565b60006020820190508181036000830152612a6581846129ed565b905092915050565b612a76816126c7565b8114612a8157600080fd5b50565b600081359050612a9381612a6d565b92915050565b60008060408385031215612ab057612aaf612638565b5b6000612abe8582860161288e565b9250506020612acf85828601612a84565b9150509250929050565b600080fd5b600080fd5b7f4e487b7100000000000000000000000000000000000000000000000000000000600052604160045260246000fd5b612b1b8261274c565b810181811067ffffffffffffffff82111715612b3a57612b39612ae3565b5b80604052505050565b6000612b4d61262e565b9050612b598282612b12565b919050565b600067ffffffffffffffff821115612b7957612b78612ae3565b5b612b828261274c565b9050602081019050919050565b82818337600083830152505050565b6000612bb1612bac84612b5e565b612b43565b905082815260208101848484011115612bcd57612bcc612ade565b5b612bd8848285612b8f565b509392505050565b600082601f830112612bf557612bf4612ad9565b5b8135612c05848260208601612b9e565b91505092915050565b60008060008060808587031215612c2857612c27612638565b5b6000612c368782880161288e565b9450506020612c478782880161288e565b9350506040612c58878288016127d9565b925050606085013567ffffffffffffffff811115612c7957612c7861263d565b5b612c8587828801612be0565b91505092959194509250565b600067ffffffffffffffff82169050919050565b612cae81612c91565b8114612cb957600080fd5b50565b600081359050612ccb81612ca5565b92915050565b600080600060608486031215612cea57612ce9612638565b5b6000612cf8868287016127d9565b9350506020612d098682870161288e565b9250506040612d1a86828701612cbc565b9150509250925092565b60008060408385031215612d3b57612d3a612638565b5b6000612d498582860161288e565b9250506020612d5a8582860161288e565b9150509250929050565b7f4e487b7100000000000000000000000000000000000000000000000000000000600052602260045260246000fd5b60006002820490506001821680612dab57607f821691505b602082108103612dbe57612dbd612d64565b5b50919050565b7f4552433732313a20617070726f76616c20746f2063757272656e74206f776e6560008201527f7200000000000000000000000000000000000000000000000000000000000000602082015250565b6000612e20602183612708565b9150612e2b82612dc4565b604082019050919050565b60006020820190508181036000830152612e4f81612e13565b9050919050565b7f4552433732313a20617070726f76652063616c6c6572206973206e6f7420746f60008201527f6b656e206f776e6572206e6f7220617070726f76656420666f7220616c6c0000602082015250565b6000612eb2603e83612708565b9150612ebd82612e56565b604082019050919050565b60006020820190508181036000830152612ee181612ea5565b9050919050565b7f4552433732313a2063616c6c6572206973206e6f7420746f6b656e206f776e6560008201527f72206e6f7220617070726f766564000000000000000000000000000000000000602082015250565b6000612f44602e83612708565b9150612f4f82612ee8565b604082019050919050565b60006020820190508181036000830152612f7381612f37565b9050919050565b600081905092915050565b50565b6000612f95600083612f7a565b9150612fa082612f85565b600082019050919050565b6000612fb682612f88565b9150819050919050565b7f4e487b7100000000000000000000000000000000000000000000000000000000600052603260045260246000fd5b7f4e487b7100000000000000000000000000000000000000000000000000000000600052601160045260246000fd5b6000613029826127b8565b91507fffffffffffffffffffffffffffffffffffffffffffffffffffffffffffffffff820361305b5761305a612fef565b5b600182019050919050565b7f4552433732313a20696e76616c696420746f6b656e2049440000000000000000600082015250565b600061309c601883612708565b91506130a782613066565b602082019050919050565b600060208201905081810360008301526130cb8161308f565b9050919050565b7f4552433732313a2061646472657373207a65726f206973206e6f74206120766160008201527f6c6964206f776e65720000000000000000000000000000000000000000000000602082015250565b600061312e602983612708565b9150613139826130d2565b604082019050919050565b6000602082019050818103600083015261315d81613121565b9050919050565b7f496e76616c6964206d696e7420616d6f756e7421000000000000000000000000600082015250565b600061319a601483612708565b91506131a582613164565b602082019050919050565b600060208201905081810360008301526131c98161318d565b9050919050565b60006131db826127b8565b91506131e6836127b8565b9250827fffffffffffffffffffffffffffffffffffffffffffffffffffffffffffffffff0382111561321b5761321a612fef565b5b828201905092915050565b7f4d617820737570706c7920657863656564656421000000000000000000000000600082015250565b600061325c601483612708565b915061326782613226565b602082019050919050565b6000602082019050818103600083015261328b8161324f565b9050919050565b600061329d826127b8565b91506132a8836127b8565b9250817fffffffffffffffffffffffffffffffffffffffffffffffffffffffffffffffff04831182151516156132e1576132e0612fef565b5b828202905092915050565b7f496e73756666696369656e742066756e64732100000000000000000000000000600082015250565b6000613322601383612708565b915061332d826132ec565b602082019050919050565b6000602082019050818103600083015261335181613315565b9050919050565b7f7075626c6963206d696e74206c696d6974206578636565646564000000000000600082015250565b600061338e601a83612708565b915061339982613358565b602082019050919050565b600060208201905081810360008301526133bd81613381565b9050919050565b7f4552433732314d657461646174613a2055524920717565727920666f72206e6f60008201527f6e6578697374656e7420746f6b656e0000000000000000000000000000000000602082015250565b6000613420602f83612708565b915061342b826133c4565b604082019050919050565b6000602082019050818103600083015261344f81613413565b9050919050565b600081905092915050565b600061346c826126fd565b6134768185613456565b9350613486818560208601612719565b80840191505092915050565b60008190508160005260206000209050919050565b600081546134b481612d93565b6134be8186613456565b945060018216600081146134d957600181146134ea5761351d565b60ff1983168652818601935061351d565b6134f385613492565b60005b83811015613515578154818901526001820191506020810190506134f6565b838801955050505b50505092915050565b60006135328286613461565b915061353e8285613461565b915061354a82846134a7565b9150819050949350505050565b7f4552433732313a207472616e736665722063616c6c6572206973206e6f74206f60008201527f776e6572206e6f7220617070726f766564000000000000000000000000000000602082015250565b60006135b3603183612708565b91506135be82613557565b604082019050919050565b600060208201905081810360008301526135e2816135a6565b9050919050565b6135f281612c91565b82525050565b600060208201905061360d60008301846135e9565b92915050565b7f4f776e61626c653a206e6577206f776e657220697320746865207a65726f206160008201527f6464726573730000000000000000000000000000000000000000000000000000602082015250565b600061366f602683612708565b915061367a82613613565b604082019050919050565b6000602082019050818103600083015261369e81613662565b9050919050565b7f4552433732313a207472616e736665722066726f6d20696e636f72726563742060008201527f6f776e6572000000000000000000000000000000000000000000000000000000602082015250565b6000613701602583612708565b915061370c826136a5565b604082019050919050565b60006020820190508181036000830152613730816136f4565b9050919050565b7f4552433732313a207472616e7366657220746f20746865207a65726f2061646460008201527f7265737300000000000000000000000000000000000000000000000000000000602082015250565b6000613793602483612708565b915061379e82613737565b604082019050919050565b600060208201905081810360008301526137c281613786565b9050919050565b60006137d4826127b8565b91506137df836127b8565b9250828210156137f2576137f1612fef565b5b828203905092915050565b7f4f776e61626c653a2063616c6c6572206973206e6f7420746865206f776e6572600082015250565b6000613833602083612708565b915061383e826137fd565b602082019050919050565b6000602082019050818103600083015261386281613826565b9050919050565b7f4552433732313a20617070726f766520746f2063616c6c657200000000000000600082015250565b600061389f601983612708565b91506138aa82613869565b602082019050919050565b600060208201905081810360008301526138ce81613892565b9050919050565b7f4552433732313a207472616e7366657220746f206e6f6e20455243373231526560008201527f63656976657220696d706c656d656e7465720000000000000000000000000000602082015250565b6000613931603283612708565b915061393c826138d5565b604082019050919050565b6000602082019050818103600083015261396081613924565b9050919050565b7f4e487b7100000000000000000000000000000000000000000000000000000000600052601260045260246000fd5b60006139a1826127b8565b91506139ac836127b8565b9250826139bc576139bb613967565b5b828204905092915050565b60006139d2826127b8565b91506139dd836127b8565b9250826139ed576139ec613967565b5b828206905092915050565b6000819050919050565b6000819050919050565b6000613a27613a22613a1d846139f8565b613a02565b612c91565b9050919050565b613a3781613a0c565b82525050565b6000602082019050613a526000830184613a2e565b92915050565b600081519050919050565b600082825260208201905092915050565b6000613a7f82613a58565b613a898185613a63565b9350613a99818560208601612719565b613aa28161274c565b840191505092915050565b6000608082019050613ac2600083018761284d565b613acf602083018661284d565b613adc60408301856128e3565b8181036060830152613aee8184613a74565b905095945050505050565b600081519050613b088161266e565b92915050565b600060208284031215613b2457613b23612638565b5b6000613b3284828501613af9565b91505092915050565b7f4552433732313a206d696e7420746f20746865207a65726f2061646472657373600082015250565b6000613b71602083612708565b9150613b7c82613b3b565b602082019050919050565b60006020820190508181036000830152613ba081613b64565b9050919050565b7f4552433732313a20746f6b656e20616c7265616479206d696e74656400000000600082015250565b6000613bdd601c83612708565b9150613be882613ba7565b602082019050919050565b60006020820190508181036000830152613c0c81613bd0565b905091905056fea2646970667358221220632251cdb570266279344a41ba92ef4caec22c1999a8919bf035f54e61f1e88e64736f6c634300080e003368747470733a2f2f336c616e642e6d7970696e6174612e636c6f75642f697066732f516d595a7a5134786b48324a7336626270337845467755555278784c64444735486b5872337441384741646247322f",
  "devdoc": {
    "kind": "dev",
    "methods": {
      "approve(address,uint256)": {
        "details": "See {IERC721-approve}."
      },
      "balanceOf(address)": {
        "details": "See {IERC721-balanceOf}."
      },
      "getApproved(uint256)": {
        "details": "See {IERC721-getApproved}."
      },
      "isApprovedForAll(address,address)": {
        "details": "See {IERC721-isApprovedForAll}."
      },
      "name()": {
        "details": "See {IERC721Metadata-name}."
      },
      "owner()": {
        "details": "Returns the address of the current owner."
      },
      "ownerOf(uint256)": {
        "details": "See {IERC721-ownerOf}."
      },
      "renounceOwnership()": {
        "details": "Leaves the contract without owner. It will not be possible to call `onlyOwner` functions anymore. Can only be called by the current owner. NOTE: Renouncing ownership will leave the contract without an owner, thereby removing any functionality that is only available to the owner."
      },
      "safeTransferFrom(address,address,uint256)": {
        "details": "See {IERC721-safeTransferFrom}."
      },
      "safeTransferFrom(address,address,uint256,bytes)": {
        "details": "See {IERC721-safeTransferFrom}."
      },
      "setApprovalForAll(address,bool)": {
        "details": "See {IERC721-setApprovalForAll}."
      },
      "setUser(uint256,address,uint64)": {
        "details": "The zero address indicates there is no user Throws if `tokenId` is not valid NFT",
        "params": {
          "expires": "UNIX timestamp, The new user could use the NFT before expires",
          "user": "The new user of the NFT"
        }
      },
      "supportsInterface(bytes4)": {
        "details": "See {IERC165-supportsInterface}."
      },
      "symbol()": {
        "details": "See {IERC721Metadata-symbol}."
      },
      "transferFrom(address,address,uint256)": {
        "details": "See {IERC721-transferFrom}."
      },
      "transferOwnership(address)": {
        "details": "Transfers ownership of the contract to a new account (`newOwner`). Can only be called by the current owner."
      },
      "userExpires(uint256)": {
        "details": "The zero value indicates that there is no user",
        "params": {
          "tokenId": "The NFT to get the user expires for"
        },
        "returns": {
          "_0": "The user expires for this NFT"
        }
      },
      "userOf(uint256)": {
        "details": "The zero address indicates that there is no user or the user is expired",
        "params": {
          "tokenId": "The NFT to get the user address for"
        },
        "returns": {
          "_0": "The user address for this NFT"
        }
      }
    },
    "version": 1
  },
  "userdoc": {
    "events": {
      "UpdateUser(uint256,address,uint64)": {
        "notice": "Emitted when the `user` of an NFT or the `expires` of the `user` is changed The zero address for user indicates that there is no user address"
      }
    },
    "kind": "user",
    "methods": {
      "setUser(uint256,address,uint64)": {
        "notice": "set the user and expires of a NFT"
      },
      "userExpires(uint256)": {
        "notice": "Get the user expires of an NFT"
      },
      "userOf(uint256)": {
        "notice": "Get the user address of an NFT"
      }
    },
    "version": 1
  },
  "storageLayout": {
    "storage": [
      {
        "astId": 138,
        "contract": "contracts/ERC4907/3Landers.sol:Landers",
        "label": "_name",
        "offset": 0,
        "slot": "0",
        "type": "t_string_storage"
      },
      {
        "astId": 140,
        "contract": "contracts/ERC4907/3Landers.sol:Landers",
        "label": "_symbol",
        "offset": 0,
        "slot": "1",
        "type": "t_string_storage"
      },
      {
        "astId": 144,
        "contract": "contracts/ERC4907/3Landers.sol:Landers",
        "label": "_owners",
        "offset": 0,
        "slot": "2",
        "type": "t_mapping(t_uint256,t_address)"
      },
      {
        "astId": 148,
        "contract": "contracts/ERC4907/3Landers.sol:Landers",
        "label": "_balances",
        "offset": 0,
        "slot": "3",
        "type": "t_mapping(t_address,t_uint256)"
      },
      {
        "astId": 152,
        "contract": "contracts/ERC4907/3Landers.sol:Landers",
        "label": "_tokenApprovals",
        "offset": 0,
        "slot": "4",
        "type": "t_mapping(t_uint256,t_address)"
      },
      {
        "astId": 158,
        "contract": "contracts/ERC4907/3Landers.sol:Landers",
        "label": "_operatorApprovals",
        "offset": 0,
        "slot": "5",
        "type": "t_mapping(t_address,t_mapping(t_address,t_bool))"
      },
      {
        "astId": 2140,
        "contract": "contracts/ERC4907/3Landers.sol:Landers",
        "label": "_users",
        "offset": 0,
        "slot": "6",
        "type": "t_mapping(t_uint256,t_struct(UserInfo)2135_storage)"
      },
      {
        "astId": 7,
        "contract": "contracts/ERC4907/3Landers.sol:Landers",
        "label": "_owner",
        "offset": 0,
        "slot": "7",
        "type": "t_address"
      },
      {
        "astId": 1820,
        "contract": "contracts/ERC4907/3Landers.sol:Landers",
        "label": "supply",
        "offset": 0,
        "slot": "8",
        "type": "t_struct(Counter)1463_storage"
      },
      {
        "astId": 1823,
        "contract": "contracts/ERC4907/3Landers.sol:Landers",
        "label": "uriPrefix",
        "offset": 0,
        "slot": "9",
        "type": "t_string_storage"
      },
      {
        "astId": 1826,
        "contract": "contracts/ERC4907/3Landers.sol:Landers",
        "label": "uriSuffix",
        "offset": 0,
        "slot": "10",
        "type": "t_string_storage"
      },
      {
        "astId": 1829,
        "contract": "contracts/ERC4907/3Landers.sol:Landers",
        "label": "mintCost",
        "offset": 0,
        "slot": "11",
        "type": "t_uint256"
      },
      {
        "astId": 1832,
        "contract": "contracts/ERC4907/3Landers.sol:Landers",
        "label": "maxSupply",
        "offset": 0,
        "slot": "12",
        "type": "t_uint256"
      },
      {
        "astId": 1835,
        "contract": "contracts/ERC4907/3Landers.sol:Landers",
        "label": "maxMintAmountPerTx",
        "offset": 0,
        "slot": "13",
        "type": "t_uint256"
      },
      {
        "astId": 1838,
        "contract": "contracts/ERC4907/3Landers.sol:Landers",
        "label": "mintLimit",
        "offset": 0,
        "slot": "14",
        "type": "t_uint256"
      },
      {
        "astId": 1842,
        "contract": "contracts/ERC4907/3Landers.sol:Landers",
        "label": "mintCount",
        "offset": 0,
        "slot": "15",
        "type": "t_mapping(t_address,t_uint256)"
      }
    ],
    "types": {
      "t_address": {
        "encoding": "inplace",
        "label": "address",
        "numberOfBytes": "20"
      },
      "t_bool": {
        "encoding": "inplace",
        "label": "bool",
        "numberOfBytes": "1"
      },
      "t_mapping(t_address,t_bool)": {
        "encoding": "mapping",
        "key": "t_address",
        "label": "mapping(address => bool)",
        "numberOfBytes": "32",
        "value": "t_bool"
      },
      "t_mapping(t_address,t_mapping(t_address,t_bool))": {
        "encoding": "mapping",
        "key": "t_address",
        "label": "mapping(address => mapping(address => bool))",
        "numberOfBytes": "32",
        "value": "t_mapping(t_address,t_bool)"
      },
      "t_mapping(t_address,t_uint256)": {
        "encoding": "mapping",
        "key": "t_address",
        "label": "mapping(address => uint256)",
        "numberOfBytes": "32",
        "value": "t_uint256"
      },
      "t_mapping(t_uint256,t_address)": {
        "encoding": "mapping",
        "key": "t_uint256",
        "label": "mapping(uint256 => address)",
        "numberOfBytes": "32",
        "value": "t_address"
      },
      "t_mapping(t_uint256,t_struct(UserInfo)2135_storage)": {
        "encoding": "mapping",
        "key": "t_uint256",
        "label": "mapping(uint256 => struct ERC4907.UserInfo)",
        "numberOfBytes": "32",
        "value": "t_struct(UserInfo)2135_storage"
      },
      "t_string_storage": {
        "encoding": "bytes",
        "label": "string",
        "numberOfBytes": "32"
      },
      "t_struct(Counter)1463_storage": {
        "encoding": "inplace",
        "label": "struct Counters.Counter",
        "members": [
          {
            "astId": 1462,
            "contract": "contracts/ERC4907/3Landers.sol:Landers",
            "label": "_value",
            "offset": 0,
            "slot": "0",
            "type": "t_uint256"
          }
        ],
        "numberOfBytes": "32"
      },
      "t_struct(UserInfo)2135_storage": {
        "encoding": "inplace",
        "label": "struct ERC4907.UserInfo",
        "members": [
          {
            "astId": 2132,
            "contract": "contracts/ERC4907/3Landers.sol:Landers",
            "label": "user",
            "offset": 0,
            "slot": "0",
            "type": "t_address"
          },
          {
            "astId": 2134,
            "contract": "contracts/ERC4907/3Landers.sol:Landers",
            "label": "expires",
            "offset": 20,
            "slot": "0",
            "type": "t_uint64"
          }
        ],
        "numberOfBytes": "32"
      },
      "t_uint256": {
        "encoding": "inplace",
        "label": "uint256",
        "numberOfBytes": "32"
      },
      "t_uint64": {
        "encoding": "inplace",
        "label": "uint64",
        "numberOfBytes": "8"
      }
    }
  }
}